{
  "contractName": "eventContract",
  "abi": [
    {
      "inputs": [
        {
          "internalType": "uint256",
          "name": "",
          "type": "uint256"
        }
      ],
      "name": "eventList",
      "outputs": [
        {
          "internalType": "address",
          "name": "organizer",
          "type": "address"
        },
        {
          "internalType": "string",
          "name": "name",
          "type": "string"
        },
        {
          "internalType": "uint256",
          "name": "date",
          "type": "uint256"
        },
        {
          "internalType": "uint256",
          "name": "price",
          "type": "uint256"
        },
        {
          "internalType": "uint256",
          "name": "seats",
          "type": "uint256"
        },
        {
          "internalType": "uint256",
          "name": "vacantSeats",
          "type": "uint256"
        }
      ],
      "stateMutability": "view",
      "type": "function",
      "constant": true
    },
    {
      "inputs": [],
      "name": "nextId",
      "outputs": [
        {
          "internalType": "uint256",
          "name": "",
          "type": "uint256"
        }
      ],
      "stateMutability": "view",
      "type": "function",
      "constant": true
    },
    {
      "inputs": [
        {
          "internalType": "address",
          "name": "",
          "type": "address"
        },
        {
          "internalType": "uint256",
          "name": "",
          "type": "uint256"
        }
      ],
      "name": "tickets",
      "outputs": [
        {
          "internalType": "uint256",
          "name": "",
          "type": "uint256"
        }
      ],
      "stateMutability": "view",
      "type": "function",
      "constant": true
    },
    {
      "inputs": [
        {
          "internalType": "string",
          "name": "_name",
          "type": "string"
        },
        {
          "internalType": "uint256",
          "name": "_date",
          "type": "uint256"
        },
        {
          "internalType": "uint256",
          "name": "_price",
          "type": "uint256"
        },
        {
          "internalType": "uint256",
          "name": "_seats",
          "type": "uint256"
        }
      ],
      "name": "createEvent",
      "outputs": [],
      "stateMutability": "nonpayable",
      "type": "function"
    },
    {
      "inputs": [
        {
          "internalType": "uint256",
          "name": "id",
          "type": "uint256"
        },
        {
          "internalType": "uint256",
          "name": "quantity",
          "type": "uint256"
        }
      ],
      "name": "buyTicket",
      "outputs": [],
      "stateMutability": "payable",
      "type": "function",
      "payable": true
    },
    {
      "inputs": [
        {
          "internalType": "uint256",
          "name": "event_id",
          "type": "uint256"
        },
        {
          "internalType": "uint256",
          "name": "quantity",
          "type": "uint256"
        },
        {
          "internalType": "address",
          "name": "atendee",
          "type": "address"
        }
      ],
      "name": "transfer",
      "outputs": [],
      "stateMutability": "nonpayable",
      "type": "function"
    }
  ],
  "bytecode": "0x608060405234801561001057600080fd5b506111e5806100206000396000f3fe6080604052600436106100555760003560e01c80630374ab0b1461005a578063289df2cb14610083578063298ec208146100ac578063493280d2146100c857806361b8ce8c1461010a578063dae7a13c14610135575b600080fd5b34801561006657600080fd5b50610081600480360381019061007c919061095a565b610172565b005b34801561008f57600080fd5b506100aa60048036038101906100a59190610a3a565b610301565b005b6100c660048036038101906100c191906109fe565b610517565b005b3480156100d457600080fd5b506100ef60048036038101906100ea91906109d5565b6106da565b60405161010196959493929190610d06565b60405180910390f35b34801561011657600080fd5b5061011f6107be565b60405161012c9190610e6e565b60405180910390f35b34801561014157600080fd5b5061015c6004803603810190610157919061091e565b6107c4565b6040516101699190610e6e565b60405180910390f35b4283116101b4576040517f08c379a00000000000000000000000000000000000000000000000000000000081526004016101ab90610e4e565b60405180910390fd5b600a81116101f7576040517f08c379a00000000000000000000000000000000000000000000000000000000081526004016101ee90610d6e565b60405180910390fd5b60006040518060c001604052803373ffffffffffffffffffffffffffffffffffffffff16815260200186815260200185815260200184815260200183815260200183815250905080600080600254815260200190815260200160002060008201518160000160006101000a81548173ffffffffffffffffffffffffffffffffffffffff021916908373ffffffffffffffffffffffffffffffffffffffff16021790555060208201518160010190805190602001906102b69291906107e9565b5060408201518160020155606082015181600301556080820151816004015560a08201518160050155905050600260008154809291906102f59061109a565b91905055505050505050565b600080600085815260200190815260200160002060020154141561035a576040517f08c379a000000000000000000000000000000000000000000000000000000000815260040161035190610dae565b60405180910390fd5b4260008085815260200190815260200160002060020154106103b1576040517f08c379a00000000000000000000000000000000000000000000000000000000081526004016103a890610dae565b60405180910390fd5b81600160003373ffffffffffffffffffffffffffffffffffffffff1673ffffffffffffffffffffffffffffffffffffffff1681526020019081526020016000206000858152602001908152602001600020541015610444576040517f08c379a000000000000000000000000000000000000000000000000000000000815260040161043b90610dce565b60405180910390fd5b81600160003373ffffffffffffffffffffffffffffffffffffffff1673ffffffffffffffffffffffffffffffffffffffff168152602001908152602001600020600085815260200190815260200160002060008282546104a49190610fb6565b9250508190555081600160008373ffffffffffffffffffffffffffffffffffffffff1673ffffffffffffffffffffffffffffffffffffffff1681526020019081526020016000206000858152602001908152602001600020600082825461050b9190610f06565b92505081905550505050565b60008060008481526020019081526020016000209050600081600201541415610575576040517f08c379a000000000000000000000000000000000000000000000000000000000815260040161056c90610dee565b60405180910390fd5b428160020154116105bb576040517f08c379a00000000000000000000000000000000000000000000000000000000081526004016105b290610d8e565b60405180910390fd5b8181600301546105cb9190610f5c565b341461060c576040517f08c379a000000000000000000000000000000000000000000000000000000000815260040161060390610e0e565b60405180910390fd5b8181600501541015610653576040517f08c379a000000000000000000000000000000000000000000000000000000000815260040161064a90610e2e565b60405180910390fd5b818160050160008282546106679190610fb6565b9250508190555081600160003373ffffffffffffffffffffffffffffffffffffffff1673ffffffffffffffffffffffffffffffffffffffff168152602001908152602001600020600085815260200190815260200160002060008282546106ce9190610f06565b92505081905550505050565b60006020528060005260406000206000915090508060000160009054906101000a900473ffffffffffffffffffffffffffffffffffffffff169080600101805461072390611068565b80601f016020809104026020016040519081016040528092919081815260200182805461074f90611068565b801561079c5780601f106107715761010080835404028352916020019161079c565b820191906000526020600020905b81548152906001019060200180831161077f57829003601f168201915b5050505050908060020154908060030154908060040154908060050154905086565b60025481565b6001602052816000526040600020602052806000526040600020600091509150505481565b8280546107f590611068565b90600052602060002090601f016020900481019282610817576000855561085e565b82601f1061083057805160ff191683800117855561085e565b8280016001018555821561085e579182015b8281111561085d578251825591602001919060010190610842565b5b50905061086b919061086f565b5090565b5b80821115610888576000816000905550600101610870565b5090565b600061089f61089a84610eba565b610e89565b9050828152602081018484840111156108b757600080fd5b6108c2848285611026565b509392505050565b6000813590506108d981611181565b92915050565b600082601f8301126108f057600080fd5b813561090084826020860161088c565b91505092915050565b60008135905061091881611198565b92915050565b6000806040838503121561093157600080fd5b600061093f858286016108ca565b925050602061095085828601610909565b9150509250929050565b6000806000806080858703121561097057600080fd5b600085013567ffffffffffffffff81111561098a57600080fd5b610996878288016108df565b94505060206109a787828801610909565b93505060406109b887828801610909565b92505060606109c987828801610909565b91505092959194509250565b6000602082840312156109e757600080fd5b60006109f584828501610909565b91505092915050565b60008060408385031215610a1157600080fd5b6000610a1f85828601610909565b9250506020610a3085828601610909565b9150509250929050565b600080600060608486031215610a4f57600080fd5b6000610a5d86828701610909565b9350506020610a6e86828701610909565b9250506040610a7f868287016108ca565b9150509250925092565b610a9281610fea565b82525050565b6000610aa382610eea565b610aad8185610ef5565b9350610abd818560208601611035565b610ac681611170565b840191505092915050565b6000610ade603583610ef5565b91507f4e756d626572206f6620736561747320617420746865206576656e74206d757360008301527f742062652067726561746572207468616e2031302e00000000000000000000006020830152604082019050919050565b6000610b44601183610ef5565b91507f4576656e7420697320656e6465642021210000000000000000000000000000006000830152602082019050919050565b6000610b84601083610ef5565b91507f496e76616c6964204576656e74202121000000000000000000000000000000006000830152602082019050919050565b6000610bc4601083610ef5565b91507f496e76616c6964207175616e74697479000000000000000000000000000000006000830152602082019050919050565b6000610c04601783610ef5565b91507f4576656e7420646f6573206e6f742065786973742021210000000000000000006000830152602082019050919050565b6000610c44601683610ef5565b91507f4574686572206973206e6f7420656e6f756768202121000000000000000000006000830152602082019050919050565b6000610c84601483610ef5565b91507f536561747320556e617661696c61626c652021210000000000000000000000006000830152602082019050919050565b6000610cc4602083610ef5565b91507f506c656173652063686f6f7365206120636f72726563742064617465202121216000830152602082019050919050565b610d008161101c565b82525050565b600060c082019050610d1b6000830189610a89565b8181036020830152610d2d8188610a98565b9050610d3c6040830187610cf7565b610d496060830186610cf7565b610d566080830185610cf7565b610d6360a0830184610cf7565b979650505050505050565b60006020820190508181036000830152610d8781610ad1565b9050919050565b60006020820190508181036000830152610da781610b37565b9050919050565b60006020820190508181036000830152610dc781610b77565b9050919050565b60006020820190508181036000830152610de781610bb7565b9050919050565b60006020820190508181036000830152610e0781610bf7565b9050919050565b60006020820190508181036000830152610e2781610c37565b9050919050565b60006020820190508181036000830152610e4781610c77565b9050919050565b60006020820190508181036000830152610e6781610cb7565b9050919050565b6000602082019050610e836000830184610cf7565b92915050565b6000604051905081810181811067ffffffffffffffff82111715610eb057610eaf611141565b5b8060405250919050565b600067ffffffffffffffff821115610ed557610ed4611141565b5b601f19601f8301169050602081019050919050565b600081519050919050565b600082825260208201905092915050565b6000610f118261101c565b9150610f1c8361101c565b9250827fffffffffffffffffffffffffffffffffffffffffffffffffffffffffffffffff03821115610f5157610f506110e3565b5b828201905092915050565b6000610f678261101c565b9150610f728361101c565b9250817fffffffffffffffffffffffffffffffffffffffffffffffffffffffffffffffff0483118215151615610fab57610faa6110e3565b5b828202905092915050565b6000610fc18261101c565b9150610fcc8361101c565b925082821015610fdf57610fde6110e3565b5b828203905092915050565b6000610ff582610ffc565b9050919050565b600073ffffffffffffffffffffffffffffffffffffffff82169050919050565b6000819050919050565b82818337600083830152505050565b60005b83811015611053578082015181840152602081019050611038565b83811115611062576000848401525b50505050565b6000600282049050600182168061108057607f821691505b6020821081141561109457611093611112565b5b50919050565b60006110a58261101c565b91507fffffffffffffffffffffffffffffffffffffffffffffffffffffffffffffffff8214156110d8576110d76110e3565b5b600182019050919050565b7f4e487b7100000000000000000000000000000000000000000000000000000000600052601160045260246000fd5b7f4e487b7100000000000000000000000000000000000000000000000000000000600052602260045260246000fd5b7f4e487b7100000000000000000000000000000000000000000000000000000000600052604160045260246000fd5b6000601f19601f8301169050919050565b61118a81610fea565b811461119557600080fd5b50565b6111a18161101c565b81146111ac57600080fd5b5056fea2646970667358221220d161f4e5829933c1a3f7c8d98098f884d8ebe0d6f5e740525d6af1a897787ffb64736f6c63430008000033",
  "immutableReferences": {},
  "source": "// SPDX-License-Identifier: Unlicense\r\n\r\npragma solidity ^0.8.0;\r\n\r\ncontract eventContract {\r\n    struct Event {\r\n        address organizer;\r\n        string name;\r\n        uint date;\r\n        uint price;\r\n        uint seats;\r\n        uint vacantSeats;\r\n    }\r\n\r\n    mapping(uint => Event) public eventList;\r\n    mapping(address => mapping(uint => uint)) public tickets;\r\n    uint public nextId;\r\n\r\n    /**\r\n     * @dev Creates a new event by storing its details in the `eventList` mapping.\r\n     * It checks if the provided date is in the future and if the number of seats is greater than 10 before creating the event.\r\n     * @param _name The name of the event.\r\n     * @param _date The date of the event in Unix timestamp format.\r\n     * @param _price The price of each ticket for the event.\r\n     * @param _seats The total number of seats available for the event.\r\n     */\r\n    function createEvent(string memory _name, uint _date, uint _price, uint _seats) public {\r\n\r\n        require(_date > block.timestamp, \"Please choose a correct date !!!\");\r\n\r\n        require(_seats > 10, \"Number of seats at the event must be greater than 10.\");\r\n\r\n        Event memory newEvent = Event(msg.sender, _name, _date, _price, _seats, _seats);\r\n\r\n        eventList[nextId] = newEvent;\r\n\r\n        nextId++;\r\n    }\r\n\r\n    /**\r\n     * @dev Allows users to buy tickets for an event.\r\n     * @param id The ID of the event for which the user wants to buy tickets.\r\n     * @param quantity The number of tickets the user wants to purchase.\r\n     */\r\n    function buyTicket(uint id, uint quantity) payable public {\r\n        Event storage _event = eventList[id];\r\n\r\n        require(_event.date != 0, \"Event does not exist !!\");\r\n\r\n        require(_event.date > block.timestamp, \"Event is ended !!\");\r\n\r\n        require(msg.value == _event.price * quantity, \"Ether is not enough !!\");\r\n\r\n        require(_event.vacantSeats >= quantity, \"Seats Unavailable !!\");\r\n\r\n        _event.vacantSeats -= quantity;\r\n\r\n        tickets[msg.sender][id] += quantity;\r\n    }\r\n\r\n    function transfer(uint event_id, uint quantity, address atendee) public {\r\n\r\n        require(eventList[event_id].date != 0, \"Invalid Event !!\");\r\n\r\n        require(eventList[event_id].date<block.timestamp, \"Invalid Event !!\");\r\n\r\n        require(tickets[msg.sender][event_id]>= quantity, \"Invalid quantity\");\r\n\r\n        tickets[msg.sender][event_id]-= quantity;\r\n\r\n        tickets[atendee][event_id] += quantity;\r\n        \r\n    }\r\n}",
  "sourcePath": "C:\\Users\\user\\OneDrive\\Documents\\GitHub\\3.0\\Solidty\\Projects\\Event Organizer\\contracts\\Event.sol",
  "compiler": {
    "name": "solc",
    "version": "0.8.0+commit.c7dfd78e.Emscripten.clang"
  },
  "schemaVersion": "3.4.16",
  "updatedAt": "2023-09-30T14:48:16.780Z",
  "networkType": "ethereum",
  "devdoc": {
    "kind": "dev",
    "methods": {
      "buyTicket(uint256,uint256)": {
        "details": "Allows users to buy tickets for an event.",
        "params": {
          "id": "The ID of the event for which the user wants to buy tickets.",
          "quantity": "The number of tickets the user wants to purchase."
        }
      },
      "createEvent(string,uint256,uint256,uint256)": {
        "details": "Creates a new event by storing its details in the `eventList` mapping. It checks if the provided date is in the future and if the number of seats is greater than 10 before creating the event.",
        "params": {
          "_date": "The date of the event in Unix timestamp format.",
          "_name": "The name of the event.",
          "_price": "The price of each ticket for the event.",
          "_seats": "The total number of seats available for the event."
        }
      }
    },
    "version": 1
  },
  "userdoc": {
    "kind": "user",
    "methods": {},
    "version": 1
  }
}