{
  "contractName": "eventContract",
  "abi": [
    {
      "inputs": [
        {
          "internalType": "uint256",
          "name": "",
          "type": "uint256"
        }
      ],
      "name": "eventList",
      "outputs": [
        {
          "internalType": "address",
          "name": "Organiser",
          "type": "address"
        },
        {
          "internalType": "string",
          "name": "name",
          "type": "string"
        },
        {
          "internalType": "uint256",
          "name": "date",
          "type": "uint256"
        },
        {
          "internalType": "uint256",
          "name": "price",
          "type": "uint256"
        },
        {
          "internalType": "uint256",
          "name": "seats",
          "type": "uint256"
        },
        {
          "internalType": "uint256",
          "name": "vacantSeats",
          "type": "uint256"
        }
      ],
      "stateMutability": "view",
      "type": "function"
    },
    {
      "inputs": [],
      "name": "nextId",
      "outputs": [
        {
          "internalType": "uint256",
          "name": "",
          "type": "uint256"
        }
      ],
      "stateMutability": "view",
      "type": "function"
    },
    {
      "inputs": [
        {
          "internalType": "address",
          "name": "",
          "type": "address"
        },
        {
          "internalType": "uint256",
          "name": "",
          "type": "uint256"
        }
      ],
      "name": "tickets",
      "outputs": [
        {
          "internalType": "uint256",
          "name": "",
          "type": "uint256"
        }
      ],
      "stateMutability": "view",
      "type": "function"
    },
    {
      "inputs": [
        {
          "internalType": "string",
          "name": "_name",
          "type": "string"
        },
        {
          "internalType": "uint256",
          "name": "_date",
          "type": "uint256"
        },
        {
          "internalType": "uint256",
          "name": "_price",
          "type": "uint256"
        },
        {
          "internalType": "uint256",
          "name": "_seats",
          "type": "uint256"
        }
      ],
      "name": "createEvent",
      "outputs": [],
      "stateMutability": "nonpayable",
      "type": "function"
    }
  ],
  "bytecode": "0x608060405234801561001057600080fd5b50610c08806100206000396000f3fe608060405234801561001057600080fd5b506004361061004c5760003560e01c80630374ab0b14610051578063493280d21461006d57806361b8ce8c146100a2578063dae7a13c146100c0575b600080fd5b61006b60048036038101906100669190610511565b6100f0565b005b61008760048036038101906100829190610594565b610272565b60405161009996959493929190610690565b60405180910390f35b6100aa610356565b6040516100b791906106f8565b60405180910390f35b6100da60048036038101906100d5919061073f565b61035c565b6040516100e791906106f8565b60405180910390f35b428311610132576040517f08c379a0000000000000000000000000000000000000000000000000000000008152600401610129906107cb565b60405180910390fd5b600a8111610175576040517f08c379a000000000000000000000000000000000000000000000000000000000815260040161016c9061085d565b60405180910390fd5b6040518060c001604052803373ffffffffffffffffffffffffffffffffffffffff16815260200185815260200184815260200183815260200182815260200182815250600080600254815260200190815260200160002060008201518160000160006101000a81548173ffffffffffffffffffffffffffffffffffffffff021916908373ffffffffffffffffffffffffffffffffffffffff16021790555060208201518160010190816102289190610a89565b5060408201518160020155606082015181600301556080820151816004015560a082015181600501559050506002600081548092919061026790610b8a565b919050555050505050565b60006020528060005260406000206000915090508060000160009054906101000a900473ffffffffffffffffffffffffffffffffffffffff16908060010180546102bb906108ac565b80601f01602080910402602001604051908101604052809291908181526020018280546102e7906108ac565b80156103345780601f1061030957610100808354040283529160200191610334565b820191906000526020600020905b81548152906001019060200180831161031757829003601f168201915b5050505050908060020154908060030154908060040154908060050154905086565b60025481565b6001602052816000526040600020602052806000526040600020600091509150505481565b6000604051905090565b600080fd5b600080fd5b600080fd5b600080fd5b6000601f19601f8301169050919050565b7f4e487b7100000000000000000000000000000000000000000000000000000000600052604160045260246000fd5b6103e88261039f565b810181811067ffffffffffffffff82111715610407576104066103b0565b5b80604052505050565b600061041a610381565b905061042682826103df565b919050565b600067ffffffffffffffff821115610446576104456103b0565b5b61044f8261039f565b9050602081019050919050565b82818337600083830152505050565b600061047e6104798461042b565b610410565b90508281526020810184848401111561049a5761049961039a565b5b6104a584828561045c565b509392505050565b600082601f8301126104c2576104c1610395565b5b81356104d284826020860161046b565b91505092915050565b6000819050919050565b6104ee816104db565b81146104f957600080fd5b50565b60008135905061050b816104e5565b92915050565b6000806000806080858703121561052b5761052a61038b565b5b600085013567ffffffffffffffff81111561054957610548610390565b5b610555878288016104ad565b9450506020610566878288016104fc565b9350506040610577878288016104fc565b9250506060610588878288016104fc565b91505092959194509250565b6000602082840312156105aa576105a961038b565b5b60006105b8848285016104fc565b91505092915050565b600073ffffffffffffffffffffffffffffffffffffffff82169050919050565b60006105ec826105c1565b9050919050565b6105fc816105e1565b82525050565b600081519050919050565b600082825260208201905092915050565b60005b8381101561063c578082015181840152602081019050610621565b60008484015250505050565b600061065382610602565b61065d818561060d565b935061066d81856020860161061e565b6106768161039f565b840191505092915050565b61068a816104db565b82525050565b600060c0820190506106a560008301896105f3565b81810360208301526106b78188610648565b90506106c66040830187610681565b6106d36060830186610681565b6106e06080830185610681565b6106ed60a0830184610681565b979650505050505050565b600060208201905061070d6000830184610681565b92915050565b61071c816105e1565b811461072757600080fd5b50565b60008135905061073981610713565b92915050565b600080604083850312156107565761075561038b565b5b60006107648582860161072a565b9250506020610775858286016104fc565b9150509250929050565b7f506c656173652063686f6f7365206120636f7272656374206461746520212121600082015250565b60006107b560208361060d565b91506107c08261077f565b602082019050919050565b600060208201905081810360008301526107e4816107a8565b9050919050565b7f4e756d626572206f6620736561747320617420746865206576656e74206d757360008201527f742062652067726561746572207468616e2031302e0000000000000000000000602082015250565b600061084760358361060d565b9150610852826107eb565b604082019050919050565b600060208201905081810360008301526108768161083a565b9050919050565b7f4e487b7100000000000000000000000000000000000000000000000000000000600052602260045260246000fd5b600060028204905060018216806108c457607f821691505b6020821081036108d7576108d661087d565b5b50919050565b60008190508160005260206000209050919050565b60006020601f8301049050919050565b600082821b905092915050565b60006008830261093f7fffffffffffffffffffffffffffffffffffffffffffffffffffffffffffffffff82610902565b6109498683610902565b95508019841693508086168417925050509392505050565b6000819050919050565b600061098661098161097c846104db565b610961565b6104db565b9050919050565b6000819050919050565b6109a08361096b565b6109b46109ac8261098d565b84845461090f565b825550505050565b600090565b6109c96109bc565b6109d4818484610997565b505050565b5b818110156109f8576109ed6000826109c1565b6001810190506109da565b5050565b601f821115610a3d57610a0e816108dd565b610a17846108f2565b81016020851015610a26578190505b610a3a610a32856108f2565b8301826109d9565b50505b505050565b600082821c905092915050565b6000610a6060001984600802610a42565b1980831691505092915050565b6000610a798383610a4f565b9150826002028217905092915050565b610a9282610602565b67ffffffffffffffff811115610aab57610aaa6103b0565b5b610ab582546108ac565b610ac08282856109fc565b600060209050601f831160018114610af35760008415610ae1578287015190505b610aeb8582610a6d565b865550610b53565b601f198416610b01866108dd565b60005b82811015610b2957848901518255600182019150602085019450602081019050610b04565b86831015610b465784890151610b42601f891682610a4f565b8355505b6001600288020188555050505b505050505050565b7f4e487b7100000000000000000000000000000000000000000000000000000000600052601160045260246000fd5b6000610b95826104db565b91507fffffffffffffffffffffffffffffffffffffffffffffffffffffffffffffffff8203610bc757610bc6610b5b565b5b60018201905091905056fea2646970667358221220781d472688d51acaa04e67ec21b7766cf339a4c587491eb598fdeb57df6fcac364736f6c63430008130033",
  "immutableReferences": {},
  "source": "// SPDX-License-Identifier: Unlicense\r\npragma solidity 0.8.19;\r\n\r\ncontract eventContract {\r\n    struct Event{\r\n        address Organiser;\r\n        string name;\r\n        uint date;\r\n        uint price;\r\n        uint seats;\r\n        uint vacantSeats;\r\n    }\r\n\r\n    mapping(uint => Event) public eventList;\r\n\r\n    mapping(address =>mapping(uint => uint)) public tickets;\r\n\r\n    uint public nextId;\r\n\r\n    function createEvent(string memory _name, uint _date, uint _price, uint _seats) public {\r\n\r\n        require(_date>block.timestamp, \"Please choose a correct date !!!\");\r\n\r\n        require(_seats>10, \"Number of seats at the event must be greater than 10.\");\r\n\r\n        eventList[nextId] = Event(msg.sender, _name, _date, _price, _seats, _seats);\r\n\r\n        nextId++;\r\n    }\r\n}",
  "sourcePath": "C:\\Users\\user\\OneDrive\\Documents\\GitHub\\3.0\\Solidty\\Projects\\Event Organizer\\contracts\\Event.sol",
  "compiler": {
    "name": "solc",
    "version": "0.8.19+commit.7dd6d404.Emscripten.clang"
  },
  "schemaVersion": "3.4.16",
  "updatedAt": "2023-09-30T13:44:19.543Z",
  "devdoc": {
    "kind": "dev",
    "methods": {},
    "version": 1
  },
  "userdoc": {
    "kind": "user",
    "methods": {},
    "version": 1
  }
}