{
  "contractName": "eventContract",
  "abi": [
    {
      "inputs": [
        {
          "internalType": "uint256",
          "name": "",
          "type": "uint256"
        }
      ],
      "name": "eventList",
      "outputs": [
        {
          "internalType": "address",
          "name": "Organiser",
          "type": "address"
        },
        {
          "internalType": "string",
          "name": "name",
          "type": "string"
        },
        {
          "internalType": "uint256",
          "name": "date",
          "type": "uint256"
        },
        {
          "internalType": "uint256",
          "name": "price",
          "type": "uint256"
        },
        {
          "internalType": "uint256",
          "name": "seats",
          "type": "uint256"
        },
        {
          "internalType": "uint256",
          "name": "vacantSeats",
          "type": "uint256"
        }
      ],
      "stateMutability": "view",
      "type": "function",
      "constant": true
    },
    {
      "inputs": [],
      "name": "nextId",
      "outputs": [
        {
          "internalType": "uint256",
          "name": "",
          "type": "uint256"
        }
      ],
      "stateMutability": "view",
      "type": "function",
      "constant": true
    },
    {
      "inputs": [
        {
          "internalType": "address",
          "name": "",
          "type": "address"
        },
        {
          "internalType": "uint256",
          "name": "",
          "type": "uint256"
        }
      ],
      "name": "tickets",
      "outputs": [
        {
          "internalType": "uint256",
          "name": "",
          "type": "uint256"
        }
      ],
      "stateMutability": "view",
      "type": "function",
      "constant": true
    },
    {
      "inputs": [
        {
          "internalType": "string",
          "name": "_name",
          "type": "string"
        },
        {
          "internalType": "uint256",
          "name": "_date",
          "type": "uint256"
        },
        {
          "internalType": "uint256",
          "name": "_price",
          "type": "uint256"
        },
        {
          "internalType": "uint256",
          "name": "_seats",
          "type": "uint256"
        }
      ],
      "name": "createEvent",
      "outputs": [],
      "stateMutability": "nonpayable",
      "type": "function"
    }
  ],
  "bytecode": "0x608060405234801561001057600080fd5b506109d5806100206000396000f3fe608060405234801561001057600080fd5b506004361061004c5760003560e01c80630374ab0b14610051578063493280d21461006d57806361b8ce8c146100a2578063dae7a13c146100c0575b600080fd5b61006b600480360381019061006691906104f9565b6100f0565b005b61008760048036038101906100829190610574565b610279565b6040516100999695949392919061069a565b60405180910390f35b6100aa61035d565b6040516100b79190610742565b60405180910390f35b6100da60048036038101906100d591906104bd565b610363565b6040516100e79190610742565b60405180910390f35b428311610132576040517f08c379a000000000000000000000000000000000000000000000000000000000815260040161012990610722565b60405180910390fd5b600a8111610175576040517f08c379a000000000000000000000000000000000000000000000000000000000815260040161016c90610702565b60405180910390fd5b6040518060c001604052803373ffffffffffffffffffffffffffffffffffffffff16815260200185815260200184815260200183815260200182815260200182815250600080600254815260200190815260200160002060008201518160000160006101000a81548173ffffffffffffffffffffffffffffffffffffffff021916908373ffffffffffffffffffffffffffffffffffffffff160217905550602082015181600101908051906020019061022f929190610388565b5060408201518160020155606082015181600301556080820151816004015560a082015181600501559050506002600081548092919061026e9061088a565b919050555050505050565b60006020528060005260406000206000915090508060000160009054906101000a900473ffffffffffffffffffffffffffffffffffffffff16908060010180546102c290610858565b80601f01602080910402602001604051908101604052809291908181526020018280546102ee90610858565b801561033b5780601f106103105761010080835404028352916020019161033b565b820191906000526020600020905b81548152906001019060200180831161031e57829003601f168201915b5050505050908060020154908060030154908060040154908060050154905086565b60025481565b6001602052816000526040600020602052806000526040600020600091509150505481565b82805461039490610858565b90600052602060002090601f0160209004810192826103b657600085556103fd565b82601f106103cf57805160ff19168380011785556103fd565b828001600101855582156103fd579182015b828111156103fc5782518255916020019190600101906103e1565b5b50905061040a919061040e565b5090565b5b8082111561042757600081600090555060010161040f565b5090565b600061043e6104398461078e565b61075d565b90508281526020810184848401111561045657600080fd5b610461848285610816565b509392505050565b60008135905061047881610971565b92915050565b600082601f83011261048f57600080fd5b813561049f84826020860161042b565b91505092915050565b6000813590506104b781610988565b92915050565b600080604083850312156104d057600080fd5b60006104de85828601610469565b92505060206104ef858286016104a8565b9150509250929050565b6000806000806080858703121561050f57600080fd5b600085013567ffffffffffffffff81111561052957600080fd5b6105358782880161047e565b9450506020610546878288016104a8565b9350506040610557878288016104a8565b9250506060610568878288016104a8565b91505092959194509250565b60006020828403121561058657600080fd5b6000610594848285016104a8565b91505092915050565b6105a6816107da565b82525050565b60006105b7826107be565b6105c181856107c9565b93506105d1818560208601610825565b6105da81610960565b840191505092915050565b60006105f26035836107c9565b91507f4e756d626572206f6620736561747320617420746865206576656e74206d757360008301527f742062652067726561746572207468616e2031302e00000000000000000000006020830152604082019050919050565b60006106586020836107c9565b91507f506c656173652063686f6f7365206120636f72726563742064617465202121216000830152602082019050919050565b6106948161080c565b82525050565b600060c0820190506106af600083018961059d565b81810360208301526106c181886105ac565b90506106d0604083018761068b565b6106dd606083018661068b565b6106ea608083018561068b565b6106f760a083018461068b565b979650505050505050565b6000602082019050818103600083015261071b816105e5565b9050919050565b6000602082019050818103600083015261073b8161064b565b9050919050565b6000602082019050610757600083018461068b565b92915050565b6000604051905081810181811067ffffffffffffffff8211171561078457610783610931565b5b8060405250919050565b600067ffffffffffffffff8211156107a9576107a8610931565b5b601f19601f8301169050602081019050919050565b600081519050919050565b600082825260208201905092915050565b60006107e5826107ec565b9050919050565b600073ffffffffffffffffffffffffffffffffffffffff82169050919050565b6000819050919050565b82818337600083830152505050565b60005b83811015610843578082015181840152602081019050610828565b83811115610852576000848401525b50505050565b6000600282049050600182168061087057607f821691505b6020821081141561088457610883610902565b5b50919050565b60006108958261080c565b91507fffffffffffffffffffffffffffffffffffffffffffffffffffffffffffffffff8214156108c8576108c76108d3565b5b600182019050919050565b7f4e487b7100000000000000000000000000000000000000000000000000000000600052601160045260246000fd5b7f4e487b7100000000000000000000000000000000000000000000000000000000600052602260045260246000fd5b7f4e487b7100000000000000000000000000000000000000000000000000000000600052604160045260246000fd5b6000601f19601f8301169050919050565b61097a816107da565b811461098557600080fd5b50565b6109918161080c565b811461099c57600080fd5b5056fea26469706673582212205eb51cdf6e9bc63dfdd59d9a4e3a0e624e284dcecbc75ed87fb9566ca46a16a064736f6c63430008000033",
  "immutableReferences": {},
  "source": "// SPDX-License-Identifier: Unlicense\r\n\r\npragma solidity ^0.8.0;\r\n\r\ncontract eventContract {\r\n    struct Event{\r\n        address Organiser;\r\n        string name;\r\n        uint date;\r\n        uint price;\r\n        uint seats;\r\n        uint vacantSeats;\r\n    }\r\n\r\n    mapping(uint => Event) public eventList;\r\n\r\n    mapping(address =>mapping(uint => uint)) public tickets;\r\n\r\n    uint public nextId;\r\n\r\n    function createEvent(string memory _name, uint _date, uint _price, uint _seats) public {\r\n\r\n        require(_date>block.timestamp, \"Please choose a correct date !!!\");\r\n\r\n        require(_seats>10, \"Number of seats at the event must be greater than 10.\");\r\n\r\n        eventList[nextId] = Event(msg.sender, _name, _date, _price, _seats, _seats);\r\n\r\n        nextId++;\r\n    }\r\n}",
  "sourcePath": "C:\\Users\\user\\OneDrive\\Documents\\GitHub\\3.0\\Solidty\\Projects\\Event Organizer\\contracts\\Event.sol",
  "compiler": {
    "name": "solc",
    "version": "0.8.0+commit.c7dfd78e.Emscripten.clang"
  },
  "schemaVersion": "3.4.16",
  "updatedAt": "2023-09-30T14:04:12.199Z",
  "networkType": "ethereum",
  "devdoc": {
    "kind": "dev",
    "methods": {},
    "version": 1
  },
  "userdoc": {
    "kind": "user",
    "methods": {},
    "version": 1
  }
}