{"Contracts/Schooldb.sol":{"SchoolData":{"abi":[{"inputs":[],"stateMutability":"nonpayable","type":"constructor"},{"inputs":[],"name":"Owner","outputs":[{"internalType":"address","name":"","type":"address"}],"stateMutability":"view","type":"function"},{"inputs":[{"internalType":"uint256","name":"","type":"uint256"}],"name":"StudentList","outputs":[{"internalType":"string","name":"name","type":"string"},{"internalType":"uint256","name":"roll_number","type":"uint256"},{"internalType":"uint256","name":"class","type":"uint256"},{"internalType":"string","name":"section","type":"string"}],"stateMutability":"view","type":"function"},{"inputs":[{"internalType":"uint256","name":"_id","type":"uint256"}],"name":"deleteStudent","outputs":[],"stateMutability":"nonpayable","type":"function"},{"inputs":[{"internalType":"uint256","name":"_id","type":"uint256"},{"internalType":"string","name":"_name","type":"string"},{"internalType":"uint256","name":"_roll","type":"uint256"},{"internalType":"uint256","name":"_class","type":"uint256"},{"internalType":"string","name":"_section","type":"string"}],"name":"newStudent","outputs":[],"stateMutability":"nonpayable","type":"function"},{"inputs":[{"internalType":"uint256","name":"_id","type":"uint256"},{"internalType":"string","name":"_name","type":"string"},{"internalType":"uint256","name":"_roll","type":"uint256"},{"internalType":"uint256","name":"_class","type":"uint256"},{"internalType":"string","name":"section","type":"string"}],"name":"updateStudent","outputs":[],"stateMutability":"nonpayable","type":"function"}],"evm":{"bytecode":{"linkReferences":{},"object":"608060405234801561001057600080fd5b50336000806101000a81548173ffffffffffffffffffffffffffffffffffffffff021916908373ffffffffffffffffffffffffffffffffffffffff16021790555061116e806100606000396000f3fe608060405234801561001057600080fd5b50600436106100575760003560e01c80638226697e1461005c57806395bbc64e14610078578063b4a99a4e146100ab578063b645307d146100c9578063b73cfa29146100e5575b600080fd5b61007660048036038101906100719190610908565b610101565b005b610092600480360381019061008d91906109bb565b61037b565b6040516100a29493929190610a76565b60405180910390f35b6100b36104bb565b6040516100c09190610b0a565b60405180910390f35b6100e360048036038101906100de91906109bb565b6104df565b005b6100ff60048036038101906100fa9190610908565b61060f565b005b60008054906101000a900473ffffffffffffffffffffffffffffffffffffffff1673ffffffffffffffffffffffffffffffffffffffff163373ffffffffffffffffffffffffffffffffffffffff161461018f576040517f08c379a000000000000000000000000000000000000000000000000000000000815260040161018690610b97565b60405180910390fd5b60006001600087815260200190815260200160002060010154036101e8576040517f08c379a00000000000000000000000000000000000000000000000000000000081526004016101df90610c03565b60405180910390fd5b600084511461021a57836001600087815260200190815260200160002060000190816102149190610e2f565b50610254565b600160008681526020019081526020016000206000016001600087815260200190815260200160002060000190816102529190610f2c565b505b6000831461027c578260016000878152602001908152602001600020600101819055506102ae565b600160008681526020019081526020016000206001015460016000878152602001908152602001600020600101819055505b600082146102d657816001600087815260200190815260200160002060020181905550610308565b600160008681526020019081526020016000206002015460016000878152602001908152602001600020600201819055505b600081511461033a57806001600087815260200190815260200160002060030190816103349190610e2f565b50610374565b600160008681526020019081526020016000206003016001600087815260200190815260200160002060030190816103729190610f2c565b505b5050505050565b600160205280600052604060002060009150905080600001805461039e90610c52565b80601f01602080910402602001604051908101604052809291908181526020018280546103ca90610c52565b80156104175780601f106103ec57610100808354040283529160200191610417565b820191906000526020600020905b8154815290600101906020018083116103fa57829003601f168201915b50505050509080600101549080600201549080600301805461043890610c52565b80601f016020809104026020016040519081016040528092919081815260200182805461046490610c52565b80156104b15780601f10610486576101008083540402835291602001916104b1565b820191906000526020600020905b81548152906001019060200180831161049457829003601f168201915b5050505050905084565b60008054906101000a900473ffffffffffffffffffffffffffffffffffffffff1681565b60008054906101000a900473ffffffffffffffffffffffffffffffffffffffff1673ffffffffffffffffffffffffffffffffffffffff163373ffffffffffffffffffffffffffffffffffffffff161461056d576040517f08c379a000000000000000000000000000000000000000000000000000000000815260040161056490611086565b60405180910390fd5b60006001600083815260200190815260200160002060010154036105c6576040517f08c379a00000000000000000000000000000000000000000000000000000000081526004016105bd90610c03565b60405180910390fd5b60016000828152602001908152602001600020600080820160006105ea919061071b565b6001820160009055600282016000905560038201600061060a919061071b565b505050565b60008054906101000a900473ffffffffffffffffffffffffffffffffffffffff1673ffffffffffffffffffffffffffffffffffffffff163373ffffffffffffffffffffffffffffffffffffffff161461069d576040517f08c379a000000000000000000000000000000000000000000000000000000000815260040161069490611118565b60405180910390fd5b6040518060800160405280858152602001848152602001838152602001828152506001600087815260200190815260200160002060008201518160000190816106e69190610e2f565b50602082015181600101556040820151816002015560608201518160030190816107109190610e2f565b509050505050505050565b50805461072790610c52565b6000825580601f106107395750610758565b601f016020900490600052602060002090810190610757919061075b565b5b50565b5b8082111561077457600081600090555060010161075c565b5090565b6000604051905090565b600080fd5b600080fd5b6000819050919050565b61079f8161078c565b81146107aa57600080fd5b50565b6000813590506107bc81610796565b92915050565b600080fd5b600080fd5b6000601f19601f8301169050919050565b7f4e487b7100000000000000000000000000000000000000000000000000000000600052604160045260246000fd5b610815826107cc565b810181811067ffffffffffffffff82111715610834576108336107dd565b5b80604052505050565b6000610847610778565b9050610853828261080c565b919050565b600067ffffffffffffffff821115610873576108726107dd565b5b61087c826107cc565b9050602081019050919050565b82818337600083830152505050565b60006108ab6108a684610858565b61083d565b9050828152602081018484840111156108c7576108c66107c7565b5b6108d2848285610889565b509392505050565b600082601f8301126108ef576108ee6107c2565b5b81356108ff848260208601610898565b91505092915050565b600080600080600060a0868803121561092457610923610782565b5b6000610932888289016107ad565b955050602086013567ffffffffffffffff81111561095357610952610787565b5b61095f888289016108da565b9450506040610970888289016107ad565b9350506060610981888289016107ad565b925050608086013567ffffffffffffffff8111156109a2576109a1610787565b5b6109ae888289016108da565b9150509295509295909350565b6000602082840312156109d1576109d0610782565b5b60006109df848285016107ad565b91505092915050565b600081519050919050565b600082825260208201905092915050565b60005b83811015610a22578082015181840152602081019050610a07565b60008484015250505050565b6000610a39826109e8565b610a4381856109f3565b9350610a53818560208601610a04565b610a5c816107cc565b840191505092915050565b610a708161078c565b82525050565b60006080820190508181036000830152610a908187610a2e565b9050610a9f6020830186610a67565b610aac6040830185610a67565b8181036060830152610abe8184610a2e565b905095945050505050565b600073ffffffffffffffffffffffffffffffffffffffff82169050919050565b6000610af482610ac9565b9050919050565b610b0481610ae9565b82525050565b6000602082019050610b1f6000830184610afb565b92915050565b7f4f6e6c792061646d696e732063616e207570646174652074686520646574616960008201527f6c73206f6620612073747564656e742e00000000000000000000000000000000602082015250565b6000610b816030836109f3565b9150610b8c82610b25565b604082019050919050565b60006020820190508181036000830152610bb081610b74565b9050919050565b7f53747564656e7420646f6573206e6f7420657869737400000000000000000000600082015250565b6000610bed6016836109f3565b9150610bf882610bb7565b602082019050919050565b60006020820190508181036000830152610c1c81610be0565b9050919050565b7f4e487b7100000000000000000000000000000000000000000000000000000000600052602260045260246000fd5b60006002820490506001821680610c6a57607f821691505b602082108103610c7d57610c7c610c23565b5b50919050565b60008190508160005260206000209050919050565b60006020601f8301049050919050565b600082821b905092915050565b600060088302610ce57fffffffffffffffffffffffffffffffffffffffffffffffffffffffffffffffff82610ca8565b610cef8683610ca8565b95508019841693508086168417925050509392505050565b6000819050919050565b6000610d2c610d27610d228461078c565b610d07565b61078c565b9050919050565b6000819050919050565b610d4683610d11565b610d5a610d5282610d33565b848454610cb5565b825550505050565b600090565b610d6f610d62565b610d7a818484610d3d565b505050565b5b81811015610d9e57610d93600082610d67565b600181019050610d80565b5050565b601f821115610de357610db481610c83565b610dbd84610c98565b81016020851015610dcc578190505b610de0610dd885610c98565b830182610d7f565b50505b505050565b600082821c905092915050565b6000610e0660001984600802610de8565b1980831691505092915050565b6000610e1f8383610df5565b9150826002028217905092915050565b610e38826109e8565b67ffffffffffffffff811115610e5157610e506107dd565b5b610e5b8254610c52565b610e66828285610da2565b600060209050601f831160018114610e995760008415610e87578287015190505b610e918582610e13565b865550610ef9565b601f198416610ea786610c83565b60005b82811015610ecf57848901518255600182019150602085019450602081019050610eaa565b86831015610eec5784890151610ee8601f891682610df5565b8355505b6001600288020188555050505b505050505050565b600081549050610f1081610c52565b9050919050565b60008190508160005260206000209050919050565b818103610f3a575050611012565b610f4382610f01565b67ffffffffffffffff811115610f5c57610f5b6107dd565b5b610f668254610c52565b610f71828285610da2565b6000601f831160018114610fa05760008415610f8e578287015490505b610f988582610e13565b86555061100b565b601f198416610fae87610f17565b9650610fb986610c83565b60005b82811015610fe157848901548255600182019150600185019450602081019050610fbc565b86831015610ffe5784890154610ffa601f891682610df5565b8355505b6001600288020188555050505b5050505050505b565b7f4f6e6c792061646d696e732063616e2064656c6574652074686520646574616960008201527f6c73206f6620612073747564656e742e00000000000000000000000000000000602082015250565b60006110706030836109f3565b915061107b82611014565b604082019050919050565b6000602082019050818103600083015261109f81611063565b9050919050565b7f4f6e6c792061646d696e73206368616e67652063616e20656e6c69737420612060008201527f6e65772073747564656e742e0000000000000000000000000000000000000000602082015250565b6000611102602c836109f3565b915061110d826110a6565b604082019050919050565b60006020820190508181036000830152611131816110f5565b905091905056fea26469706673582212209fd7a8e88e44e00275a7872c9ade9d70f9f3ad362fc7ac08e26ccfbf0b82212564736f6c63430008130033","opcodes":"PUSH1 0x80 PUSH1 0x40 MSTORE CALLVALUE DUP1 ISZERO PUSH2 0x10 JUMPI PUSH1 0x0 DUP1 REVERT JUMPDEST POP CALLER PUSH1 0x0 DUP1 PUSH2 0x100 EXP DUP2 SLOAD DUP2 PUSH20 0xFFFFFFFFFFFFFFFFFFFFFFFFFFFFFFFFFFFFFFFF MUL NOT AND SWAP1 DUP4 PUSH20 0xFFFFFFFFFFFFFFFFFFFFFFFFFFFFFFFFFFFFFFFF AND MUL OR SWAP1 SSTORE POP PUSH2 0x116E DUP1 PUSH2 0x60 PUSH1 0x0 CODECOPY PUSH1 0x0 RETURN INVALID PUSH1 0x80 PUSH1 0x40 MSTORE CALLVALUE DUP1 ISZERO PUSH2 0x10 JUMPI PUSH1 0x0 DUP1 REVERT JUMPDEST POP PUSH1 0x4 CALLDATASIZE LT PUSH2 0x57 JUMPI PUSH1 0x0 CALLDATALOAD PUSH1 0xE0 SHR DUP1 PUSH4 0x8226697E EQ PUSH2 0x5C JUMPI DUP1 PUSH4 0x95BBC64E EQ PUSH2 0x78 JUMPI DUP1 PUSH4 0xB4A99A4E EQ PUSH2 0xAB JUMPI DUP1 PUSH4 0xB645307D EQ PUSH2 0xC9 JUMPI DUP1 PUSH4 0xB73CFA29 EQ PUSH2 0xE5 JUMPI JUMPDEST PUSH1 0x0 DUP1 REVERT JUMPDEST PUSH2 0x76 PUSH1 0x4 DUP1 CALLDATASIZE SUB DUP2 ADD SWAP1 PUSH2 0x71 SWAP2 SWAP1 PUSH2 0x908 JUMP JUMPDEST PUSH2 0x101 JUMP JUMPDEST STOP JUMPDEST PUSH2 0x92 PUSH1 0x4 DUP1 CALLDATASIZE SUB DUP2 ADD SWAP1 PUSH2 0x8D SWAP2 SWAP1 PUSH2 0x9BB JUMP JUMPDEST PUSH2 0x37B JUMP JUMPDEST PUSH1 0x40 MLOAD PUSH2 0xA2 SWAP5 SWAP4 SWAP3 SWAP2 SWAP1 PUSH2 0xA76 JUMP JUMPDEST PUSH1 0x40 MLOAD DUP1 SWAP2 SUB SWAP1 RETURN JUMPDEST PUSH2 0xB3 PUSH2 0x4BB JUMP JUMPDEST PUSH1 0x40 MLOAD PUSH2 0xC0 SWAP2 SWAP1 PUSH2 0xB0A JUMP JUMPDEST PUSH1 0x40 MLOAD DUP1 SWAP2 SUB SWAP1 RETURN JUMPDEST PUSH2 0xE3 PUSH1 0x4 DUP1 CALLDATASIZE SUB DUP2 ADD SWAP1 PUSH2 0xDE SWAP2 SWAP1 PUSH2 0x9BB JUMP JUMPDEST PUSH2 0x4DF JUMP JUMPDEST STOP JUMPDEST PUSH2 0xFF PUSH1 0x4 DUP1 CALLDATASIZE SUB DUP2 ADD SWAP1 PUSH2 0xFA SWAP2 SWAP1 PUSH2 0x908 JUMP JUMPDEST PUSH2 0x60F JUMP JUMPDEST STOP JUMPDEST PUSH1 0x0 DUP1 SLOAD SWAP1 PUSH2 0x100 EXP SWAP1 DIV PUSH20 0xFFFFFFFFFFFFFFFFFFFFFFFFFFFFFFFFFFFFFFFF AND PUSH20 0xFFFFFFFFFFFFFFFFFFFFFFFFFFFFFFFFFFFFFFFF AND CALLER PUSH20 0xFFFFFFFFFFFFFFFFFFFFFFFFFFFFFFFFFFFFFFFF AND EQ PUSH2 0x18F JUMPI PUSH1 0x40 MLOAD PUSH32 0x8C379A000000000000000000000000000000000000000000000000000000000 DUP2 MSTORE PUSH1 0x4 ADD PUSH2 0x186 SWAP1 PUSH2 0xB97 JUMP JUMPDEST PUSH1 0x40 MLOAD DUP1 SWAP2 SUB SWAP1 REVERT JUMPDEST PUSH1 0x0 PUSH1 0x1 PUSH1 0x0 DUP8 DUP2 MSTORE PUSH1 0x20 ADD SWAP1 DUP2 MSTORE PUSH1 0x20 ADD PUSH1 0x0 KECCAK256 PUSH1 0x1 ADD SLOAD SUB PUSH2 0x1E8 JUMPI PUSH1 0x40 MLOAD PUSH32 0x8C379A000000000000000000000000000000000000000000000000000000000 DUP2 MSTORE PUSH1 0x4 ADD PUSH2 0x1DF SWAP1 PUSH2 0xC03 JUMP JUMPDEST PUSH1 0x40 MLOAD DUP1 SWAP2 SUB SWAP1 REVERT JUMPDEST PUSH1 0x0 DUP5 MLOAD EQ PUSH2 0x21A JUMPI DUP4 PUSH1 0x1 PUSH1 0x0 DUP8 DUP2 MSTORE PUSH1 0x20 ADD SWAP1 DUP2 MSTORE PUSH1 0x20 ADD PUSH1 0x0 KECCAK256 PUSH1 0x0 ADD SWAP1 DUP2 PUSH2 0x214 SWAP2 SWAP1 PUSH2 0xE2F JUMP JUMPDEST POP PUSH2 0x254 JUMP JUMPDEST PUSH1 0x1 PUSH1 0x0 DUP7 DUP2 MSTORE PUSH1 0x20 ADD SWAP1 DUP2 MSTORE PUSH1 0x20 ADD PUSH1 0x0 KECCAK256 PUSH1 0x0 ADD PUSH1 0x1 PUSH1 0x0 DUP8 DUP2 MSTORE PUSH1 0x20 ADD SWAP1 DUP2 MSTORE PUSH1 0x20 ADD PUSH1 0x0 KECCAK256 PUSH1 0x0 ADD SWAP1 DUP2 PUSH2 0x252 SWAP2 SWAP1 PUSH2 0xF2C JUMP JUMPDEST POP JUMPDEST PUSH1 0x0 DUP4 EQ PUSH2 0x27C JUMPI DUP3 PUSH1 0x1 PUSH1 0x0 DUP8 DUP2 MSTORE PUSH1 0x20 ADD SWAP1 DUP2 MSTORE PUSH1 0x20 ADD PUSH1 0x0 KECCAK256 PUSH1 0x1 ADD DUP2 SWAP1 SSTORE POP PUSH2 0x2AE JUMP JUMPDEST PUSH1 0x1 PUSH1 0x0 DUP7 DUP2 MSTORE PUSH1 0x20 ADD SWAP1 DUP2 MSTORE PUSH1 0x20 ADD PUSH1 0x0 KECCAK256 PUSH1 0x1 ADD SLOAD PUSH1 0x1 PUSH1 0x0 DUP8 DUP2 MSTORE PUSH1 0x20 ADD SWAP1 DUP2 MSTORE PUSH1 0x20 ADD PUSH1 0x0 KECCAK256 PUSH1 0x1 ADD DUP2 SWAP1 SSTORE POP JUMPDEST PUSH1 0x0 DUP3 EQ PUSH2 0x2D6 JUMPI DUP2 PUSH1 0x1 PUSH1 0x0 DUP8 DUP2 MSTORE PUSH1 0x20 ADD SWAP1 DUP2 MSTORE PUSH1 0x20 ADD PUSH1 0x0 KECCAK256 PUSH1 0x2 ADD DUP2 SWAP1 SSTORE POP PUSH2 0x308 JUMP JUMPDEST PUSH1 0x1 PUSH1 0x0 DUP7 DUP2 MSTORE PUSH1 0x20 ADD SWAP1 DUP2 MSTORE PUSH1 0x20 ADD PUSH1 0x0 KECCAK256 PUSH1 0x2 ADD SLOAD PUSH1 0x1 PUSH1 0x0 DUP8 DUP2 MSTORE PUSH1 0x20 ADD SWAP1 DUP2 MSTORE PUSH1 0x20 ADD PUSH1 0x0 KECCAK256 PUSH1 0x2 ADD DUP2 SWAP1 SSTORE POP JUMPDEST PUSH1 0x0 DUP2 MLOAD EQ PUSH2 0x33A JUMPI DUP1 PUSH1 0x1 PUSH1 0x0 DUP8 DUP2 MSTORE PUSH1 0x20 ADD SWAP1 DUP2 MSTORE PUSH1 0x20 ADD PUSH1 0x0 KECCAK256 PUSH1 0x3 ADD SWAP1 DUP2 PUSH2 0x334 SWAP2 SWAP1 PUSH2 0xE2F JUMP JUMPDEST POP PUSH2 0x374 JUMP JUMPDEST PUSH1 0x1 PUSH1 0x0 DUP7 DUP2 MSTORE PUSH1 0x20 ADD SWAP1 DUP2 MSTORE PUSH1 0x20 ADD PUSH1 0x0 KECCAK256 PUSH1 0x3 ADD PUSH1 0x1 PUSH1 0x0 DUP8 DUP2 MSTORE PUSH1 0x20 ADD SWAP1 DUP2 MSTORE PUSH1 0x20 ADD PUSH1 0x0 KECCAK256 PUSH1 0x3 ADD SWAP1 DUP2 PUSH2 0x372 SWAP2 SWAP1 PUSH2 0xF2C JUMP JUMPDEST POP JUMPDEST POP POP POP POP POP JUMP JUMPDEST PUSH1 0x1 PUSH1 0x20 MSTORE DUP1 PUSH1 0x0 MSTORE PUSH1 0x40 PUSH1 0x0 KECCAK256 PUSH1 0x0 SWAP2 POP SWAP1 POP DUP1 PUSH1 0x0 ADD DUP1 SLOAD PUSH2 0x39E SWAP1 PUSH2 0xC52 JUMP JUMPDEST DUP1 PUSH1 0x1F ADD PUSH1 0x20 DUP1 SWAP2 DIV MUL PUSH1 0x20 ADD PUSH1 0x40 MLOAD SWAP1 DUP2 ADD PUSH1 0x40 MSTORE DUP1 SWAP3 SWAP2 SWAP1 DUP2 DUP2 MSTORE PUSH1 0x20 ADD DUP3 DUP1 SLOAD PUSH2 0x3CA SWAP1 PUSH2 0xC52 JUMP JUMPDEST DUP1 ISZERO PUSH2 0x417 JUMPI DUP1 PUSH1 0x1F LT PUSH2 0x3EC JUMPI PUSH2 0x100 DUP1 DUP4 SLOAD DIV MUL DUP4 MSTORE SWAP2 PUSH1 0x20 ADD SWAP2 PUSH2 0x417 JUMP JUMPDEST DUP3 ADD SWAP2 SWAP1 PUSH1 0x0 MSTORE PUSH1 0x20 PUSH1 0x0 KECCAK256 SWAP1 JUMPDEST DUP2 SLOAD DUP2 MSTORE SWAP1 PUSH1 0x1 ADD SWAP1 PUSH1 0x20 ADD DUP1 DUP4 GT PUSH2 0x3FA JUMPI DUP3 SWAP1 SUB PUSH1 0x1F AND DUP3 ADD SWAP2 JUMPDEST POP POP POP POP POP SWAP1 DUP1 PUSH1 0x1 ADD SLOAD SWAP1 DUP1 PUSH1 0x2 ADD SLOAD SWAP1 DUP1 PUSH1 0x3 ADD DUP1 SLOAD PUSH2 0x438 SWAP1 PUSH2 0xC52 JUMP JUMPDEST DUP1 PUSH1 0x1F ADD PUSH1 0x20 DUP1 SWAP2 DIV MUL PUSH1 0x20 ADD PUSH1 0x40 MLOAD SWAP1 DUP2 ADD PUSH1 0x40 MSTORE DUP1 SWAP3 SWAP2 SWAP1 DUP2 DUP2 MSTORE PUSH1 0x20 ADD DUP3 DUP1 SLOAD PUSH2 0x464 SWAP1 PUSH2 0xC52 JUMP JUMPDEST DUP1 ISZERO PUSH2 0x4B1 JUMPI DUP1 PUSH1 0x1F LT PUSH2 0x486 JUMPI PUSH2 0x100 DUP1 DUP4 SLOAD DIV MUL DUP4 MSTORE SWAP2 PUSH1 0x20 ADD SWAP2 PUSH2 0x4B1 JUMP JUMPDEST DUP3 ADD SWAP2 SWAP1 PUSH1 0x0 MSTORE PUSH1 0x20 PUSH1 0x0 KECCAK256 SWAP1 JUMPDEST DUP2 SLOAD DUP2 MSTORE SWAP1 PUSH1 0x1 ADD SWAP1 PUSH1 0x20 ADD DUP1 DUP4 GT PUSH2 0x494 JUMPI DUP3 SWAP1 SUB PUSH1 0x1F AND DUP3 ADD SWAP2 JUMPDEST POP POP POP POP POP SWAP1 POP DUP5 JUMP JUMPDEST PUSH1 0x0 DUP1 SLOAD SWAP1 PUSH2 0x100 EXP SWAP1 DIV PUSH20 0xFFFFFFFFFFFFFFFFFFFFFFFFFFFFFFFFFFFFFFFF AND DUP2 JUMP JUMPDEST PUSH1 0x0 DUP1 SLOAD SWAP1 PUSH2 0x100 EXP SWAP1 DIV PUSH20 0xFFFFFFFFFFFFFFFFFFFFFFFFFFFFFFFFFFFFFFFF AND PUSH20 0xFFFFFFFFFFFFFFFFFFFFFFFFFFFFFFFFFFFFFFFF AND CALLER PUSH20 0xFFFFFFFFFFFFFFFFFFFFFFFFFFFFFFFFFFFFFFFF AND EQ PUSH2 0x56D JUMPI PUSH1 0x40 MLOAD PUSH32 0x8C379A000000000000000000000000000000000000000000000000000000000 DUP2 MSTORE PUSH1 0x4 ADD PUSH2 0x564 SWAP1 PUSH2 0x1086 JUMP JUMPDEST PUSH1 0x40 MLOAD DUP1 SWAP2 SUB SWAP1 REVERT JUMPDEST PUSH1 0x0 PUSH1 0x1 PUSH1 0x0 DUP4 DUP2 MSTORE PUSH1 0x20 ADD SWAP1 DUP2 MSTORE PUSH1 0x20 ADD PUSH1 0x0 KECCAK256 PUSH1 0x1 ADD SLOAD SUB PUSH2 0x5C6 JUMPI PUSH1 0x40 MLOAD PUSH32 0x8C379A000000000000000000000000000000000000000000000000000000000 DUP2 MSTORE PUSH1 0x4 ADD PUSH2 0x5BD SWAP1 PUSH2 0xC03 JUMP JUMPDEST PUSH1 0x40 MLOAD DUP1 SWAP2 SUB SWAP1 REVERT JUMPDEST PUSH1 0x1 PUSH1 0x0 DUP3 DUP2 MSTORE PUSH1 0x20 ADD SWAP1 DUP2 MSTORE PUSH1 0x20 ADD PUSH1 0x0 KECCAK256 PUSH1 0x0 DUP1 DUP3 ADD PUSH1 0x0 PUSH2 0x5EA SWAP2 SWAP1 PUSH2 0x71B JUMP JUMPDEST PUSH1 0x1 DUP3 ADD PUSH1 0x0 SWAP1 SSTORE PUSH1 0x2 DUP3 ADD PUSH1 0x0 SWAP1 SSTORE PUSH1 0x3 DUP3 ADD PUSH1 0x0 PUSH2 0x60A SWAP2 SWAP1 PUSH2 0x71B JUMP JUMPDEST POP POP POP JUMP JUMPDEST PUSH1 0x0 DUP1 SLOAD SWAP1 PUSH2 0x100 EXP SWAP1 DIV PUSH20 0xFFFFFFFFFFFFFFFFFFFFFFFFFFFFFFFFFFFFFFFF AND PUSH20 0xFFFFFFFFFFFFFFFFFFFFFFFFFFFFFFFFFFFFFFFF AND CALLER PUSH20 0xFFFFFFFFFFFFFFFFFFFFFFFFFFFFFFFFFFFFFFFF AND EQ PUSH2 0x69D JUMPI PUSH1 0x40 MLOAD PUSH32 0x8C379A000000000000000000000000000000000000000000000000000000000 DUP2 MSTORE PUSH1 0x4 ADD PUSH2 0x694 SWAP1 PUSH2 0x1118 JUMP JUMPDEST PUSH1 0x40 MLOAD DUP1 SWAP2 SUB SWAP1 REVERT JUMPDEST PUSH1 0x40 MLOAD DUP1 PUSH1 0x80 ADD PUSH1 0x40 MSTORE DUP1 DUP6 DUP2 MSTORE PUSH1 0x20 ADD DUP5 DUP2 MSTORE PUSH1 0x20 ADD DUP4 DUP2 MSTORE PUSH1 0x20 ADD DUP3 DUP2 MSTORE POP PUSH1 0x1 PUSH1 0x0 DUP8 DUP2 MSTORE PUSH1 0x20 ADD SWAP1 DUP2 MSTORE PUSH1 0x20 ADD PUSH1 0x0 KECCAK256 PUSH1 0x0 DUP3 ADD MLOAD DUP2 PUSH1 0x0 ADD SWAP1 DUP2 PUSH2 0x6E6 SWAP2 SWAP1 PUSH2 0xE2F JUMP JUMPDEST POP PUSH1 0x20 DUP3 ADD MLOAD DUP2 PUSH1 0x1 ADD SSTORE PUSH1 0x40 DUP3 ADD MLOAD DUP2 PUSH1 0x2 ADD SSTORE PUSH1 0x60 DUP3 ADD MLOAD DUP2 PUSH1 0x3 ADD SWAP1 DUP2 PUSH2 0x710 SWAP2 SWAP1 PUSH2 0xE2F JUMP JUMPDEST POP SWAP1 POP POP POP POP POP POP POP JUMP JUMPDEST POP DUP1 SLOAD PUSH2 0x727 SWAP1 PUSH2 0xC52 JUMP JUMPDEST PUSH1 0x0 DUP3 SSTORE DUP1 PUSH1 0x1F LT PUSH2 0x739 JUMPI POP PUSH2 0x758 JUMP JUMPDEST PUSH1 0x1F ADD PUSH1 0x20 SWAP1 DIV SWAP1 PUSH1 0x0 MSTORE PUSH1 0x20 PUSH1 0x0 KECCAK256 SWAP1 DUP2 ADD SWAP1 PUSH2 0x757 SWAP2 SWAP1 PUSH2 0x75B JUMP JUMPDEST JUMPDEST POP JUMP JUMPDEST JUMPDEST DUP1 DUP3 GT ISZERO PUSH2 0x774 JUMPI PUSH1 0x0 DUP2 PUSH1 0x0 SWAP1 SSTORE POP PUSH1 0x1 ADD PUSH2 0x75C JUMP JUMPDEST POP SWAP1 JUMP JUMPDEST PUSH1 0x0 PUSH1 0x40 MLOAD SWAP1 POP SWAP1 JUMP JUMPDEST PUSH1 0x0 DUP1 REVERT JUMPDEST PUSH1 0x0 DUP1 REVERT JUMPDEST PUSH1 0x0 DUP2 SWAP1 POP SWAP2 SWAP1 POP JUMP JUMPDEST PUSH2 0x79F DUP2 PUSH2 0x78C JUMP JUMPDEST DUP2 EQ PUSH2 0x7AA JUMPI PUSH1 0x0 DUP1 REVERT JUMPDEST POP JUMP JUMPDEST PUSH1 0x0 DUP2 CALLDATALOAD SWAP1 POP PUSH2 0x7BC DUP2 PUSH2 0x796 JUMP JUMPDEST SWAP3 SWAP2 POP POP JUMP JUMPDEST PUSH1 0x0 DUP1 REVERT JUMPDEST PUSH1 0x0 DUP1 REVERT JUMPDEST PUSH1 0x0 PUSH1 0x1F NOT PUSH1 0x1F DUP4 ADD AND SWAP1 POP SWAP2 SWAP1 POP JUMP JUMPDEST PUSH32 0x4E487B7100000000000000000000000000000000000000000000000000000000 PUSH1 0x0 MSTORE PUSH1 0x41 PUSH1 0x4 MSTORE PUSH1 0x24 PUSH1 0x0 REVERT JUMPDEST PUSH2 0x815 DUP3 PUSH2 0x7CC JUMP JUMPDEST DUP2 ADD DUP2 DUP2 LT PUSH8 0xFFFFFFFFFFFFFFFF DUP3 GT OR ISZERO PUSH2 0x834 JUMPI PUSH2 0x833 PUSH2 0x7DD JUMP JUMPDEST JUMPDEST DUP1 PUSH1 0x40 MSTORE POP POP POP JUMP JUMPDEST PUSH1 0x0 PUSH2 0x847 PUSH2 0x778 JUMP JUMPDEST SWAP1 POP PUSH2 0x853 DUP3 DUP3 PUSH2 0x80C JUMP JUMPDEST SWAP2 SWAP1 POP JUMP JUMPDEST PUSH1 0x0 PUSH8 0xFFFFFFFFFFFFFFFF DUP3 GT ISZERO PUSH2 0x873 JUMPI PUSH2 0x872 PUSH2 0x7DD JUMP JUMPDEST JUMPDEST PUSH2 0x87C DUP3 PUSH2 0x7CC JUMP JUMPDEST SWAP1 POP PUSH1 0x20 DUP2 ADD SWAP1 POP SWAP2 SWAP1 POP JUMP JUMPDEST DUP3 DUP2 DUP4 CALLDATACOPY PUSH1 0x0 DUP4 DUP4 ADD MSTORE POP POP POP JUMP JUMPDEST PUSH1 0x0 PUSH2 0x8AB PUSH2 0x8A6 DUP5 PUSH2 0x858 JUMP JUMPDEST PUSH2 0x83D JUMP JUMPDEST SWAP1 POP DUP3 DUP2 MSTORE PUSH1 0x20 DUP2 ADD DUP5 DUP5 DUP5 ADD GT ISZERO PUSH2 0x8C7 JUMPI PUSH2 0x8C6 PUSH2 0x7C7 JUMP JUMPDEST JUMPDEST PUSH2 0x8D2 DUP5 DUP3 DUP6 PUSH2 0x889 JUMP JUMPDEST POP SWAP4 SWAP3 POP POP POP JUMP JUMPDEST PUSH1 0x0 DUP3 PUSH1 0x1F DUP4 ADD SLT PUSH2 0x8EF JUMPI PUSH2 0x8EE PUSH2 0x7C2 JUMP JUMPDEST JUMPDEST DUP2 CALLDATALOAD PUSH2 0x8FF DUP5 DUP3 PUSH1 0x20 DUP7 ADD PUSH2 0x898 JUMP JUMPDEST SWAP2 POP POP SWAP3 SWAP2 POP POP JUMP JUMPDEST PUSH1 0x0 DUP1 PUSH1 0x0 DUP1 PUSH1 0x0 PUSH1 0xA0 DUP7 DUP9 SUB SLT ISZERO PUSH2 0x924 JUMPI PUSH2 0x923 PUSH2 0x782 JUMP JUMPDEST JUMPDEST PUSH1 0x0 PUSH2 0x932 DUP9 DUP3 DUP10 ADD PUSH2 0x7AD JUMP JUMPDEST SWAP6 POP POP PUSH1 0x20 DUP7 ADD CALLDATALOAD PUSH8 0xFFFFFFFFFFFFFFFF DUP2 GT ISZERO PUSH2 0x953 JUMPI PUSH2 0x952 PUSH2 0x787 JUMP JUMPDEST JUMPDEST PUSH2 0x95F DUP9 DUP3 DUP10 ADD PUSH2 0x8DA JUMP JUMPDEST SWAP5 POP POP PUSH1 0x40 PUSH2 0x970 DUP9 DUP3 DUP10 ADD PUSH2 0x7AD JUMP JUMPDEST SWAP4 POP POP PUSH1 0x60 PUSH2 0x981 DUP9 DUP3 DUP10 ADD PUSH2 0x7AD JUMP JUMPDEST SWAP3 POP POP PUSH1 0x80 DUP7 ADD CALLDATALOAD PUSH8 0xFFFFFFFFFFFFFFFF DUP2 GT ISZERO PUSH2 0x9A2 JUMPI PUSH2 0x9A1 PUSH2 0x787 JUMP JUMPDEST JUMPDEST PUSH2 0x9AE DUP9 DUP3 DUP10 ADD PUSH2 0x8DA JUMP JUMPDEST SWAP2 POP POP SWAP3 SWAP6 POP SWAP3 SWAP6 SWAP1 SWAP4 POP JUMP JUMPDEST PUSH1 0x0 PUSH1 0x20 DUP3 DUP5 SUB SLT ISZERO PUSH2 0x9D1 JUMPI PUSH2 0x9D0 PUSH2 0x782 JUMP JUMPDEST JUMPDEST PUSH1 0x0 PUSH2 0x9DF DUP5 DUP3 DUP6 ADD PUSH2 0x7AD JUMP JUMPDEST SWAP2 POP POP SWAP3 SWAP2 POP POP JUMP JUMPDEST PUSH1 0x0 DUP2 MLOAD SWAP1 POP SWAP2 SWAP1 POP JUMP JUMPDEST PUSH1 0x0 DUP3 DUP3 MSTORE PUSH1 0x20 DUP3 ADD SWAP1 POP SWAP3 SWAP2 POP POP JUMP JUMPDEST PUSH1 0x0 JUMPDEST DUP4 DUP2 LT ISZERO PUSH2 0xA22 JUMPI DUP1 DUP3 ADD MLOAD DUP2 DUP5 ADD MSTORE PUSH1 0x20 DUP2 ADD SWAP1 POP PUSH2 0xA07 JUMP JUMPDEST PUSH1 0x0 DUP5 DUP5 ADD MSTORE POP POP POP POP JUMP JUMPDEST PUSH1 0x0 PUSH2 0xA39 DUP3 PUSH2 0x9E8 JUMP JUMPDEST PUSH2 0xA43 DUP2 DUP6 PUSH2 0x9F3 JUMP JUMPDEST SWAP4 POP PUSH2 0xA53 DUP2 DUP6 PUSH1 0x20 DUP7 ADD PUSH2 0xA04 JUMP JUMPDEST PUSH2 0xA5C DUP2 PUSH2 0x7CC JUMP JUMPDEST DUP5 ADD SWAP2 POP POP SWAP3 SWAP2 POP POP JUMP JUMPDEST PUSH2 0xA70 DUP2 PUSH2 0x78C JUMP JUMPDEST DUP3 MSTORE POP POP JUMP JUMPDEST PUSH1 0x0 PUSH1 0x80 DUP3 ADD SWAP1 POP DUP2 DUP2 SUB PUSH1 0x0 DUP4 ADD MSTORE PUSH2 0xA90 DUP2 DUP8 PUSH2 0xA2E JUMP JUMPDEST SWAP1 POP PUSH2 0xA9F PUSH1 0x20 DUP4 ADD DUP7 PUSH2 0xA67 JUMP JUMPDEST PUSH2 0xAAC PUSH1 0x40 DUP4 ADD DUP6 PUSH2 0xA67 JUMP JUMPDEST DUP2 DUP2 SUB PUSH1 0x60 DUP4 ADD MSTORE PUSH2 0xABE DUP2 DUP5 PUSH2 0xA2E JUMP JUMPDEST SWAP1 POP SWAP6 SWAP5 POP POP POP POP POP JUMP JUMPDEST PUSH1 0x0 PUSH20 0xFFFFFFFFFFFFFFFFFFFFFFFFFFFFFFFFFFFFFFFF DUP3 AND SWAP1 POP SWAP2 SWAP1 POP JUMP JUMPDEST PUSH1 0x0 PUSH2 0xAF4 DUP3 PUSH2 0xAC9 JUMP JUMPDEST SWAP1 POP SWAP2 SWAP1 POP JUMP JUMPDEST PUSH2 0xB04 DUP2 PUSH2 0xAE9 JUMP JUMPDEST DUP3 MSTORE POP POP JUMP JUMPDEST PUSH1 0x0 PUSH1 0x20 DUP3 ADD SWAP1 POP PUSH2 0xB1F PUSH1 0x0 DUP4 ADD DUP5 PUSH2 0xAFB JUMP JUMPDEST SWAP3 SWAP2 POP POP JUMP JUMPDEST PUSH32 0x4F6E6C792061646D696E732063616E2075706461746520746865206465746169 PUSH1 0x0 DUP3 ADD MSTORE PUSH32 0x6C73206F6620612073747564656E742E00000000000000000000000000000000 PUSH1 0x20 DUP3 ADD MSTORE POP JUMP JUMPDEST PUSH1 0x0 PUSH2 0xB81 PUSH1 0x30 DUP4 PUSH2 0x9F3 JUMP JUMPDEST SWAP2 POP PUSH2 0xB8C DUP3 PUSH2 0xB25 JUMP JUMPDEST PUSH1 0x40 DUP3 ADD SWAP1 POP SWAP2 SWAP1 POP JUMP JUMPDEST PUSH1 0x0 PUSH1 0x20 DUP3 ADD SWAP1 POP DUP2 DUP2 SUB PUSH1 0x0 DUP4 ADD MSTORE PUSH2 0xBB0 DUP2 PUSH2 0xB74 JUMP JUMPDEST SWAP1 POP SWAP2 SWAP1 POP JUMP JUMPDEST PUSH32 0x53747564656E7420646F6573206E6F7420657869737400000000000000000000 PUSH1 0x0 DUP3 ADD MSTORE POP JUMP JUMPDEST PUSH1 0x0 PUSH2 0xBED PUSH1 0x16 DUP4 PUSH2 0x9F3 JUMP JUMPDEST SWAP2 POP PUSH2 0xBF8 DUP3 PUSH2 0xBB7 JUMP JUMPDEST PUSH1 0x20 DUP3 ADD SWAP1 POP SWAP2 SWAP1 POP JUMP JUMPDEST PUSH1 0x0 PUSH1 0x20 DUP3 ADD SWAP1 POP DUP2 DUP2 SUB PUSH1 0x0 DUP4 ADD MSTORE PUSH2 0xC1C DUP2 PUSH2 0xBE0 JUMP JUMPDEST SWAP1 POP SWAP2 SWAP1 POP JUMP JUMPDEST PUSH32 0x4E487B7100000000000000000000000000000000000000000000000000000000 PUSH1 0x0 MSTORE PUSH1 0x22 PUSH1 0x4 MSTORE PUSH1 0x24 PUSH1 0x0 REVERT JUMPDEST PUSH1 0x0 PUSH1 0x2 DUP3 DIV SWAP1 POP PUSH1 0x1 DUP3 AND DUP1 PUSH2 0xC6A JUMPI PUSH1 0x7F DUP3 AND SWAP2 POP JUMPDEST PUSH1 0x20 DUP3 LT DUP2 SUB PUSH2 0xC7D JUMPI PUSH2 0xC7C PUSH2 0xC23 JUMP JUMPDEST JUMPDEST POP SWAP2 SWAP1 POP JUMP JUMPDEST PUSH1 0x0 DUP2 SWAP1 POP DUP2 PUSH1 0x0 MSTORE PUSH1 0x20 PUSH1 0x0 KECCAK256 SWAP1 POP SWAP2 SWAP1 POP JUMP JUMPDEST PUSH1 0x0 PUSH1 0x20 PUSH1 0x1F DUP4 ADD DIV SWAP1 POP SWAP2 SWAP1 POP JUMP JUMPDEST PUSH1 0x0 DUP3 DUP3 SHL SWAP1 POP SWAP3 SWAP2 POP POP JUMP JUMPDEST PUSH1 0x0 PUSH1 0x8 DUP4 MUL PUSH2 0xCE5 PUSH32 0xFFFFFFFFFFFFFFFFFFFFFFFFFFFFFFFFFFFFFFFFFFFFFFFFFFFFFFFFFFFFFFFF DUP3 PUSH2 0xCA8 JUMP JUMPDEST PUSH2 0xCEF DUP7 DUP4 PUSH2 0xCA8 JUMP JUMPDEST SWAP6 POP DUP1 NOT DUP5 AND SWAP4 POP DUP1 DUP7 AND DUP5 OR SWAP3 POP POP POP SWAP4 SWAP3 POP POP POP JUMP JUMPDEST PUSH1 0x0 DUP2 SWAP1 POP SWAP2 SWAP1 POP JUMP JUMPDEST PUSH1 0x0 PUSH2 0xD2C PUSH2 0xD27 PUSH2 0xD22 DUP5 PUSH2 0x78C JUMP JUMPDEST PUSH2 0xD07 JUMP JUMPDEST PUSH2 0x78C JUMP JUMPDEST SWAP1 POP SWAP2 SWAP1 POP JUMP JUMPDEST PUSH1 0x0 DUP2 SWAP1 POP SWAP2 SWAP1 POP JUMP JUMPDEST PUSH2 0xD46 DUP4 PUSH2 0xD11 JUMP JUMPDEST PUSH2 0xD5A PUSH2 0xD52 DUP3 PUSH2 0xD33 JUMP JUMPDEST DUP5 DUP5 SLOAD PUSH2 0xCB5 JUMP JUMPDEST DUP3 SSTORE POP POP POP POP JUMP JUMPDEST PUSH1 0x0 SWAP1 JUMP JUMPDEST PUSH2 0xD6F PUSH2 0xD62 JUMP JUMPDEST PUSH2 0xD7A DUP2 DUP5 DUP5 PUSH2 0xD3D JUMP JUMPDEST POP POP POP JUMP JUMPDEST JUMPDEST DUP2 DUP2 LT ISZERO PUSH2 0xD9E JUMPI PUSH2 0xD93 PUSH1 0x0 DUP3 PUSH2 0xD67 JUMP JUMPDEST PUSH1 0x1 DUP2 ADD SWAP1 POP PUSH2 0xD80 JUMP JUMPDEST POP POP JUMP JUMPDEST PUSH1 0x1F DUP3 GT ISZERO PUSH2 0xDE3 JUMPI PUSH2 0xDB4 DUP2 PUSH2 0xC83 JUMP JUMPDEST PUSH2 0xDBD DUP5 PUSH2 0xC98 JUMP JUMPDEST DUP2 ADD PUSH1 0x20 DUP6 LT ISZERO PUSH2 0xDCC JUMPI DUP2 SWAP1 POP JUMPDEST PUSH2 0xDE0 PUSH2 0xDD8 DUP6 PUSH2 0xC98 JUMP JUMPDEST DUP4 ADD DUP3 PUSH2 0xD7F JUMP JUMPDEST POP POP JUMPDEST POP POP POP JUMP JUMPDEST PUSH1 0x0 DUP3 DUP3 SHR SWAP1 POP SWAP3 SWAP2 POP POP JUMP JUMPDEST PUSH1 0x0 PUSH2 0xE06 PUSH1 0x0 NOT DUP5 PUSH1 0x8 MUL PUSH2 0xDE8 JUMP JUMPDEST NOT DUP1 DUP4 AND SWAP2 POP POP SWAP3 SWAP2 POP POP JUMP JUMPDEST PUSH1 0x0 PUSH2 0xE1F DUP4 DUP4 PUSH2 0xDF5 JUMP JUMPDEST SWAP2 POP DUP3 PUSH1 0x2 MUL DUP3 OR SWAP1 POP SWAP3 SWAP2 POP POP JUMP JUMPDEST PUSH2 0xE38 DUP3 PUSH2 0x9E8 JUMP JUMPDEST PUSH8 0xFFFFFFFFFFFFFFFF DUP2 GT ISZERO PUSH2 0xE51 JUMPI PUSH2 0xE50 PUSH2 0x7DD JUMP JUMPDEST JUMPDEST PUSH2 0xE5B DUP3 SLOAD PUSH2 0xC52 JUMP JUMPDEST PUSH2 0xE66 DUP3 DUP3 DUP6 PUSH2 0xDA2 JUMP JUMPDEST PUSH1 0x0 PUSH1 0x20 SWAP1 POP PUSH1 0x1F DUP4 GT PUSH1 0x1 DUP2 EQ PUSH2 0xE99 JUMPI PUSH1 0x0 DUP5 ISZERO PUSH2 0xE87 JUMPI DUP3 DUP8 ADD MLOAD SWAP1 POP JUMPDEST PUSH2 0xE91 DUP6 DUP3 PUSH2 0xE13 JUMP JUMPDEST DUP7 SSTORE POP PUSH2 0xEF9 JUMP JUMPDEST PUSH1 0x1F NOT DUP5 AND PUSH2 0xEA7 DUP7 PUSH2 0xC83 JUMP JUMPDEST PUSH1 0x0 JUMPDEST DUP3 DUP2 LT ISZERO PUSH2 0xECF JUMPI DUP5 DUP10 ADD MLOAD DUP3 SSTORE PUSH1 0x1 DUP3 ADD SWAP2 POP PUSH1 0x20 DUP6 ADD SWAP5 POP PUSH1 0x20 DUP2 ADD SWAP1 POP PUSH2 0xEAA JUMP JUMPDEST DUP7 DUP4 LT ISZERO PUSH2 0xEEC JUMPI DUP5 DUP10 ADD MLOAD PUSH2 0xEE8 PUSH1 0x1F DUP10 AND DUP3 PUSH2 0xDF5 JUMP JUMPDEST DUP4 SSTORE POP JUMPDEST PUSH1 0x1 PUSH1 0x2 DUP9 MUL ADD DUP9 SSTORE POP POP POP JUMPDEST POP POP POP POP POP POP JUMP JUMPDEST PUSH1 0x0 DUP2 SLOAD SWAP1 POP PUSH2 0xF10 DUP2 PUSH2 0xC52 JUMP JUMPDEST SWAP1 POP SWAP2 SWAP1 POP JUMP JUMPDEST PUSH1 0x0 DUP2 SWAP1 POP DUP2 PUSH1 0x0 MSTORE PUSH1 0x20 PUSH1 0x0 KECCAK256 SWAP1 POP SWAP2 SWAP1 POP JUMP JUMPDEST DUP2 DUP2 SUB PUSH2 0xF3A JUMPI POP POP PUSH2 0x1012 JUMP JUMPDEST PUSH2 0xF43 DUP3 PUSH2 0xF01 JUMP JUMPDEST PUSH8 0xFFFFFFFFFFFFFFFF DUP2 GT ISZERO PUSH2 0xF5C JUMPI PUSH2 0xF5B PUSH2 0x7DD JUMP JUMPDEST JUMPDEST PUSH2 0xF66 DUP3 SLOAD PUSH2 0xC52 JUMP JUMPDEST PUSH2 0xF71 DUP3 DUP3 DUP6 PUSH2 0xDA2 JUMP JUMPDEST PUSH1 0x0 PUSH1 0x1F DUP4 GT PUSH1 0x1 DUP2 EQ PUSH2 0xFA0 JUMPI PUSH1 0x0 DUP5 ISZERO PUSH2 0xF8E JUMPI DUP3 DUP8 ADD SLOAD SWAP1 POP JUMPDEST PUSH2 0xF98 DUP6 DUP3 PUSH2 0xE13 JUMP JUMPDEST DUP7 SSTORE POP PUSH2 0x100B JUMP JUMPDEST PUSH1 0x1F NOT DUP5 AND PUSH2 0xFAE DUP8 PUSH2 0xF17 JUMP JUMPDEST SWAP7 POP PUSH2 0xFB9 DUP7 PUSH2 0xC83 JUMP JUMPDEST PUSH1 0x0 JUMPDEST DUP3 DUP2 LT ISZERO PUSH2 0xFE1 JUMPI DUP5 DUP10 ADD SLOAD DUP3 SSTORE PUSH1 0x1 DUP3 ADD SWAP2 POP PUSH1 0x1 DUP6 ADD SWAP5 POP PUSH1 0x20 DUP2 ADD SWAP1 POP PUSH2 0xFBC JUMP JUMPDEST DUP7 DUP4 LT ISZERO PUSH2 0xFFE JUMPI DUP5 DUP10 ADD SLOAD PUSH2 0xFFA PUSH1 0x1F DUP10 AND DUP3 PUSH2 0xDF5 JUMP JUMPDEST DUP4 SSTORE POP JUMPDEST PUSH1 0x1 PUSH1 0x2 DUP9 MUL ADD DUP9 SSTORE POP POP POP JUMPDEST POP POP POP POP POP POP JUMPDEST JUMP JUMPDEST PUSH32 0x4F6E6C792061646D696E732063616E2064656C65746520746865206465746169 PUSH1 0x0 DUP3 ADD MSTORE PUSH32 0x6C73206F6620612073747564656E742E00000000000000000000000000000000 PUSH1 0x20 DUP3 ADD MSTORE POP JUMP JUMPDEST PUSH1 0x0 PUSH2 0x1070 PUSH1 0x30 DUP4 PUSH2 0x9F3 JUMP JUMPDEST SWAP2 POP PUSH2 0x107B DUP3 PUSH2 0x1014 JUMP JUMPDEST PUSH1 0x40 DUP3 ADD SWAP1 POP SWAP2 SWAP1 POP JUMP JUMPDEST PUSH1 0x0 PUSH1 0x20 DUP3 ADD SWAP1 POP DUP2 DUP2 SUB PUSH1 0x0 DUP4 ADD MSTORE PUSH2 0x109F DUP2 PUSH2 0x1063 JUMP JUMPDEST SWAP1 POP SWAP2 SWAP1 POP JUMP JUMPDEST PUSH32 0x4F6E6C792061646D696E73206368616E67652063616E20656E6C697374206120 PUSH1 0x0 DUP3 ADD MSTORE PUSH32 0x6E65772073747564656E742E0000000000000000000000000000000000000000 PUSH1 0x20 DUP3 ADD MSTORE POP JUMP JUMPDEST PUSH1 0x0 PUSH2 0x1102 PUSH1 0x2C DUP4 PUSH2 0x9F3 JUMP JUMPDEST SWAP2 POP PUSH2 0x110D DUP3 PUSH2 0x10A6 JUMP JUMPDEST PUSH1 0x40 DUP3 ADD SWAP1 POP SWAP2 SWAP1 POP JUMP JUMPDEST PUSH1 0x0 PUSH1 0x20 DUP3 ADD SWAP1 POP DUP2 DUP2 SUB PUSH1 0x0 DUP4 ADD MSTORE PUSH2 0x1131 DUP2 PUSH2 0x10F5 JUMP JUMPDEST SWAP1 POP SWAP2 SWAP1 POP JUMP INVALID LOG2 PUSH5 0x6970667358 0x22 SLT KECCAK256 SWAP16 0xD7 0xA8 0xE8 DUP15 PREVRANDAO 0xE0 MUL PUSH22 0xA7872C9ADE9D70F9F3AD362FC7AC08E26CCFBF0B8221 0x25 PUSH5 0x736F6C6343 STOP ADDMOD SGT STOP CALLER "},"methodIdentifiers":{"Owner()":"b4a99a4e","StudentList(uint256)":"95bbc64e","deleteStudent(uint256)":"b645307d","newStudent(uint256,string,uint256,uint256,string)":"b73cfa29","updateStudent(uint256,string,uint256,uint256,string)":"8226697e"}}}}}