{
  "_format": "hh-sol-artifact-1",
  "contractName": "Token",
  "sourceName": "Contracts/Token.sol",
  "abi": [
    {
      "inputs": [],
      "stateMutability": "nonpayable",
      "type": "constructor"
    },
    {
      "inputs": [
        {
          "internalType": "address",
          "name": "_account",
          "type": "address"
        }
      ],
      "name": "fetchBalance",
      "outputs": [
        {
          "internalType": "uint256",
          "name": "",
          "type": "uint256"
        }
      ],
      "stateMutability": "view",
      "type": "function"
    },
    {
      "inputs": [],
      "name": "name",
      "outputs": [
        {
          "internalType": "string",
          "name": "",
          "type": "string"
        }
      ],
      "stateMutability": "view",
      "type": "function"
    },
    {
      "inputs": [],
      "name": "owner",
      "outputs": [
        {
          "internalType": "address",
          "name": "",
          "type": "address"
        }
      ],
      "stateMutability": "view",
      "type": "function"
    },
    {
      "inputs": [],
      "name": "symbol",
      "outputs": [
        {
          "internalType": "string",
          "name": "",
          "type": "string"
        }
      ],
      "stateMutability": "view",
      "type": "function"
    },
    {
      "inputs": [],
      "name": "totalSupply",
      "outputs": [
        {
          "internalType": "uint256",
          "name": "",
          "type": "uint256"
        }
      ],
      "stateMutability": "view",
      "type": "function"
    },
    {
      "inputs": [
        {
          "internalType": "address",
          "name": "_to",
          "type": "address"
        },
        {
          "internalType": "uint256",
          "name": "_amount",
          "type": "uint256"
        }
      ],
      "name": "transfer",
      "outputs": [],
      "stateMutability": "nonpayable",
      "type": "function"
    }
  ],
  "bytecode": "0x60806040526040518060400160405280600d81526020017f686172646861745f746f6b656e00000000000000000000000000000000000000815250600090816200004a9190620003ad565b506040518060400160405280600381526020017f485454000000000000000000000000000000000000000000000000000000000081525060019081620000919190620003ad565b50612710600255348015620000a557600080fd5b50600254600460003373ffffffffffffffffffffffffffffffffffffffff1673ffffffffffffffffffffffffffffffffffffffff1681526020019081526020016000208190555033600360006101000a81548173ffffffffffffffffffffffffffffffffffffffff021916908373ffffffffffffffffffffffffffffffffffffffff16021790555062000494565b600081519050919050565b7f4e487b7100000000000000000000000000000000000000000000000000000000600052604160045260246000fd5b7f4e487b7100000000000000000000000000000000000000000000000000000000600052602260045260246000fd5b60006002820490506001821680620001b557607f821691505b602082108103620001cb57620001ca6200016d565b5b50919050565b60008190508160005260206000209050919050565b60006020601f8301049050919050565b600082821b905092915050565b600060088302620002357fffffffffffffffffffffffffffffffffffffffffffffffffffffffffffffffff82620001f6565b620002418683620001f6565b95508019841693508086168417925050509392505050565b6000819050919050565b6000819050919050565b60006200028e62000288620002828462000259565b62000263565b62000259565b9050919050565b6000819050919050565b620002aa836200026d565b620002c2620002b98262000295565b84845462000203565b825550505050565b600090565b620002d9620002ca565b620002e68184846200029f565b505050565b5b818110156200030e5762000302600082620002cf565b600181019050620002ec565b5050565b601f8211156200035d576200032781620001d1565b6200033284620001e6565b8101602085101562000342578190505b6200035a6200035185620001e6565b830182620002eb565b50505b505050565b600082821c905092915050565b6000620003826000198460080262000362565b1980831691505092915050565b60006200039d83836200036f565b9150826002028217905092915050565b620003b88262000133565b67ffffffffffffffff811115620003d457620003d36200013e565b5b620003e082546200019c565b620003ed82828562000312565b600060209050601f83116001811462000425576000841562000410578287015190505b6200041c85826200038f565b8655506200048c565b601f1984166200043586620001d1565b60005b828110156200045f5784890151825560018201915060208501945060208101905062000438565b868310156200047f57848901516200047b601f8916826200036f565b8355505b6001600288020188555050505b505050505050565b61079380620004a46000396000f3fe608060405234801561001057600080fd5b50600436106100625760003560e01c806306fdde031461006757806318160ddd146100855780638da5cb5b146100a357806395d89b41146100c1578063a9059cbb146100df578063ed2872b1146100fb575b600080fd5b61006f61012b565b60405161007c919061047e565b60405180910390f35b61008d6101b9565b60405161009a91906104b9565b60405180910390f35b6100ab6101bf565b6040516100b89190610515565b60405180910390f35b6100c96101e5565b6040516100d6919061047e565b60405180910390f35b6100f960048036038101906100f4919061058d565b610273565b005b610115600480360381019061011091906105cd565b6103a5565b60405161012291906104b9565b60405180910390f35b6000805461013890610629565b80601f016020809104026020016040519081016040528092919081815260200182805461016490610629565b80156101b15780601f10610186576101008083540402835291602001916101b1565b820191906000526020600020905b81548152906001019060200180831161019457829003601f168201915b505050505081565b60025481565b600360009054906101000a900473ffffffffffffffffffffffffffffffffffffffff1681565b600180546101f290610629565b80601f016020809104026020016040519081016040528092919081815260200182805461021e90610629565b801561026b5780601f106102405761010080835404028352916020019161026b565b820191906000526020600020905b81548152906001019060200180831161024e57829003601f168201915b505050505081565b80600460003373ffffffffffffffffffffffffffffffffffffffff1673ffffffffffffffffffffffffffffffffffffffff1681526020019081526020016000205410156102f5576040517f08c379a00000000000000000000000000000000000000000000000000000000081526004016102ec906106a6565b60405180910390fd5b80600460003373ffffffffffffffffffffffffffffffffffffffff1673ffffffffffffffffffffffffffffffffffffffff168152602001908152602001600020600082825461034491906106f5565b9250508190555080600460008473ffffffffffffffffffffffffffffffffffffffff1673ffffffffffffffffffffffffffffffffffffffff168152602001908152602001600020600082825461039a9190610729565b925050819055505050565b6000600460008373ffffffffffffffffffffffffffffffffffffffff1673ffffffffffffffffffffffffffffffffffffffff168152602001908152602001600020549050919050565b600081519050919050565b600082825260208201905092915050565b60005b8381101561042857808201518184015260208101905061040d565b60008484015250505050565b6000601f19601f8301169050919050565b6000610450826103ee565b61045a81856103f9565b935061046a81856020860161040a565b61047381610434565b840191505092915050565b600060208201905081810360008301526104988184610445565b905092915050565b6000819050919050565b6104b3816104a0565b82525050565b60006020820190506104ce60008301846104aa565b92915050565b600073ffffffffffffffffffffffffffffffffffffffff82169050919050565b60006104ff826104d4565b9050919050565b61050f816104f4565b82525050565b600060208201905061052a6000830184610506565b92915050565b600080fd5b61053e816104f4565b811461054957600080fd5b50565b60008135905061055b81610535565b92915050565b61056a816104a0565b811461057557600080fd5b50565b60008135905061058781610561565b92915050565b600080604083850312156105a4576105a3610530565b5b60006105b28582860161054c565b92505060206105c385828601610578565b9150509250929050565b6000602082840312156105e3576105e2610530565b5b60006105f18482850161054c565b91505092915050565b7f4e487b7100000000000000000000000000000000000000000000000000000000600052602260045260246000fd5b6000600282049050600182168061064157607f821691505b602082108103610654576106536105fa565b5b50919050565b7f496e73756666696369656e742042616c616e6365202121210000000000000000600082015250565b60006106906018836103f9565b915061069b8261065a565b602082019050919050565b600060208201905081810360008301526106bf81610683565b9050919050565b7f4e487b7100000000000000000000000000000000000000000000000000000000600052601160045260246000fd5b6000610700826104a0565b915061070b836104a0565b9250828203905081811115610723576107226106c6565b5b92915050565b6000610734826104a0565b915061073f836104a0565b9250828201905080821115610757576107566106c6565b5b9291505056fea2646970667358221220e7d60723d671c3bc1ddfe7e8f78717544391f534821833d7787aa52225f6764664736f6c63430008130033",
  "linkReferences": {},
  "deployedLinkReferences": {}
}