{
  "_format": "hh-sol-artifact-1",
  "contractName": "Token",
  "sourceName": "Contracts/Token.sol",
  "abi": [
    {
      "inputs": [],
      "stateMutability": "nonpayable",
      "type": "constructor"
    },
    {
      "inputs": [
        {
          "internalType": "address",
          "name": "_account",
          "type": "address"
        }
      ],
      "name": "fetchBalance",
      "outputs": [
        {
          "internalType": "uint256",
          "name": "",
          "type": "uint256"
        }
      ],
      "stateMutability": "view",
      "type": "function"
    },
    {
      "inputs": [],
      "name": "name",
      "outputs": [
        {
          "internalType": "string",
          "name": "",
          "type": "string"
        }
      ],
      "stateMutability": "view",
      "type": "function"
    },
    {
      "inputs": [],
      "name": "owner",
      "outputs": [
        {
          "internalType": "address",
          "name": "",
          "type": "address"
        }
      ],
      "stateMutability": "view",
      "type": "function"
    },
    {
      "inputs": [],
      "name": "symbol",
      "outputs": [
        {
          "internalType": "string",
          "name": "",
          "type": "string"
        }
      ],
      "stateMutability": "view",
      "type": "function"
    },
    {
      "inputs": [],
      "name": "totalSupply",
      "outputs": [
        {
          "internalType": "uint256",
          "name": "",
          "type": "uint256"
        }
      ],
      "stateMutability": "view",
      "type": "function"
    },
    {
      "inputs": [
        {
          "internalType": "address",
          "name": "_to",
          "type": "address"
        },
        {
          "internalType": "uint256",
          "name": "_amount",
          "type": "uint256"
        }
      ],
      "name": "transfer",
      "outputs": [],
      "stateMutability": "nonpayable",
      "type": "function"
    }
  ],
  "bytecode": "0x60806040526040518060400160405280600d81526020017f686172646861745f746f6b656e00000000000000000000000000000000000000815250600090816200004a9190620003ad565b506040518060400160405280600381526020017f485454000000000000000000000000000000000000000000000000000000000081525060019081620000919190620003ad565b50612710600255348015620000a557600080fd5b50600254600460003373ffffffffffffffffffffffffffffffffffffffff1673ffffffffffffffffffffffffffffffffffffffff1681526020019081526020016000208190555033600360006101000a81548173ffffffffffffffffffffffffffffffffffffffff021916908373ffffffffffffffffffffffffffffffffffffffff16021790555062000494565b600081519050919050565b7f4e487b7100000000000000000000000000000000000000000000000000000000600052604160045260246000fd5b7f4e487b7100000000000000000000000000000000000000000000000000000000600052602260045260246000fd5b60006002820490506001821680620001b557607f821691505b602082108103620001cb57620001ca6200016d565b5b50919050565b60008190508160005260206000209050919050565b60006020601f8301049050919050565b600082821b905092915050565b600060088302620002357fffffffffffffffffffffffffffffffffffffffffffffffffffffffffffffffff82620001f6565b620002418683620001f6565b95508019841693508086168417925050509392505050565b6000819050919050565b6000819050919050565b60006200028e62000288620002828462000259565b62000263565b62000259565b9050919050565b6000819050919050565b620002aa836200026d565b620002c2620002b98262000295565b84845462000203565b825550505050565b600090565b620002d9620002ca565b620002e68184846200029f565b505050565b5b818110156200030e5762000302600082620002cf565b600181019050620002ec565b5050565b601f8211156200035d576200032781620001d1565b6200033284620001e6565b8101602085101562000342578190505b6200035a6200035185620001e6565b830182620002eb565b50505b505050565b600082821c905092915050565b6000620003826000198460080262000362565b1980831691505092915050565b60006200039d83836200036f565b9150826002028217905092915050565b620003b88262000133565b67ffffffffffffffff811115620003d457620003d36200013e565b5b620003e082546200019c565b620003ed82828562000312565b600060209050601f83116001811462000425576000841562000410578287015190505b6200041c85826200038f565b8655506200048c565b601f1984166200043586620001d1565b60005b828110156200045f5784890151825560018201915060208501945060208101905062000438565b868310156200047f57848901516200047b601f8916826200036f565b8355505b6001600288020188555050505b505050505050565b610a8c80620004a46000396000f3fe608060405234801561001057600080fd5b50600436106100625760003560e01c806306fdde031461006757806318160ddd146100855780638da5cb5b146100a357806395d89b41146100c1578063a9059cbb146100df578063ed2872b1146100fb575b600080fd5b61006f61012b565b60405161007c91906106aa565b60405180910390f35b61008d6101b9565b60405161009a91906106e5565b60405180910390f35b6100ab6101bf565b6040516100b89190610741565b60405180910390f35b6100c96101e5565b6040516100d691906106aa565b60405180910390f35b6100f960048036038101906100f491906107b9565b610273565b005b610115600480360381019061011091906107f9565b610446565b60405161012291906106e5565b60405180910390f35b6000805461013890610855565b80601f016020809104026020016040519081016040528092919081815260200182805461016490610855565b80156101b15780601f10610186576101008083540402835291602001916101b1565b820191906000526020600020905b81548152906001019060200180831161019457829003601f168201915b505050505081565b60025481565b600360009054906101000a900473ffffffffffffffffffffffffffffffffffffffff1681565b600180546101f290610855565b80601f016020809104026020016040519081016040528092919081815260200182805461021e90610855565b801561026b5780601f106102405761010080835404028352916020019161026b565b820191906000526020600020905b81548152906001019060200180831161024e57829003601f168201915b505050505081565b6102f16040518060400160405280602081526020017f2a202a2073656e6465722062616c616e636520257320746f6b656e73202a202a815250600460003373ffffffffffffffffffffffffffffffffffffffff1673ffffffffffffffffffffffffffffffffffffffff1681526020019081526020016000205461048f565b610314604051806060016040528060308152602001610a2760309139828461052b565b80600460003373ffffffffffffffffffffffffffffffffffffffff1673ffffffffffffffffffffffffffffffffffffffff168152602001908152602001600020541015610396576040517f08c379a000000000000000000000000000000000000000000000000000000000815260040161038d906108d2565b60405180910390fd5b80600460003373ffffffffffffffffffffffffffffffffffffffff1673ffffffffffffffffffffffffffffffffffffffff16815260200190815260200160002060008282546103e59190610921565b9250508190555080600460008473ffffffffffffffffffffffffffffffffffffffff1673ffffffffffffffffffffffffffffffffffffffff168152602001908152602001600020600082825461043b9190610955565b925050819055505050565b6000600460008373ffffffffffffffffffffffffffffffffffffffff1673ffffffffffffffffffffffffffffffffffffffff168152602001908152602001600020549050919050565b61052782826040516024016104a5929190610989565b6040516020818303038152906040527fb60e72cc000000000000000000000000000000000000000000000000000000007bffffffffffffffffffffffffffffffffffffffffffffffffffffffff19166020820180517bffffffffffffffffffffffffffffffffffffffffffffffffffffffff83818316178352505050506105ca565b5050565b6105c5838383604051602401610543939291906109b9565b6040516020818303038152906040527f1c7ec448000000000000000000000000000000000000000000000000000000007bffffffffffffffffffffffffffffffffffffffffffffffffffffffff19166020820180517bffffffffffffffffffffffffffffffffffffffffffffffffffffffff83818316178352505050506105ca565b505050565b6105e1816105d96105e4610605565b63ffffffff16565b50565b60006a636f6e736f6c652e6c6f679050600080835160208501845afa505050565b610610819050919050565b6106186109f7565b565b600081519050919050565b600082825260208201905092915050565b60005b83811015610654578082015181840152602081019050610639565b60008484015250505050565b6000601f19601f8301169050919050565b600061067c8261061a565b6106868185610625565b9350610696818560208601610636565b61069f81610660565b840191505092915050565b600060208201905081810360008301526106c48184610671565b905092915050565b6000819050919050565b6106df816106cc565b82525050565b60006020820190506106fa60008301846106d6565b92915050565b600073ffffffffffffffffffffffffffffffffffffffff82169050919050565b600061072b82610700565b9050919050565b61073b81610720565b82525050565b60006020820190506107566000830184610732565b92915050565b600080fd5b61076a81610720565b811461077557600080fd5b50565b60008135905061078781610761565b92915050565b610796816106cc565b81146107a157600080fd5b50565b6000813590506107b38161078d565b92915050565b600080604083850312156107d0576107cf61075c565b5b60006107de85828601610778565b92505060206107ef858286016107a4565b9150509250929050565b60006020828403121561080f5761080e61075c565b5b600061081d84828501610778565b91505092915050565b7f4e487b7100000000000000000000000000000000000000000000000000000000600052602260045260246000fd5b6000600282049050600182168061086d57607f821691505b6020821081036108805761087f610826565b5b50919050565b7f496e73756666696369656e742042616c616e6365202121210000000000000000600082015250565b60006108bc601883610625565b91506108c782610886565b602082019050919050565b600060208201905081810360008301526108eb816108af565b9050919050565b7f4e487b7100000000000000000000000000000000000000000000000000000000600052601160045260246000fd5b600061092c826106cc565b9150610937836106cc565b925082820390508181111561094f5761094e6108f2565b5b92915050565b6000610960826106cc565b915061096b836106cc565b9250828201905080821115610983576109826108f2565b5b92915050565b600060408201905081810360008301526109a38185610671565b90506109b260208301846106d6565b9392505050565b600060608201905081810360008301526109d38186610671565b90506109e260208301856106d6565b6109ef6040830184610732565b949350505050565b7f4e487b7100000000000000000000000000000000000000000000000000000000600052605160045260246000fdfe2a202a536e656465722069732073656e64696e6720257320746f6b656e7320746f2025732061646472657373202a202aa2646970667358221220a1a86060d7defdfaaafce6d350938e5b739f44920df7712857e2b6882461d9fc64736f6c63430008130033",
  "linkReferences": {},
  "deployedLinkReferences": {}
}