{
  "contractName": "Test",
  "abi": [
    {
      "inputs": [],
      "name": "b",
      "outputs": [
        {
          "internalType": "uint256",
          "name": "",
          "type": "uint256"
        }
      ],
      "stateMutability": "view",
      "type": "function",
      "constant": true
    },
    {
      "inputs": [],
      "name": "x",
      "outputs": [
        {
          "internalType": "uint256",
          "name": "",
          "type": "uint256"
        }
      ],
      "stateMutability": "view",
      "type": "function",
      "constant": true
    },
    {
      "inputs": [
        {
          "internalType": "uint256",
          "name": "_x",
          "type": "uint256"
        }
      ],
      "name": "Setter",
      "outputs": [],
      "stateMutability": "nonpayable",
      "type": "function"
    },
    {
      "inputs": [],
      "name": "Getter",
      "outputs": [
        {
          "internalType": "uint256",
          "name": "",
          "type": "uint256"
        }
      ],
      "stateMutability": "view",
      "type": "function",
      "constant": true
    }
  ],
  "bytecode": "0x608060405234801561001057600080fd5b506101a5806100206000396000f3fe608060405234801561001057600080fd5b506004361061004c5760003560e01c80630c55699c146100515780631aa492911461006f5780634df7e3d01461008d578063dd611e8d146100ab575b600080fd5b6100596100c7565b6040516100669190610133565b60405180910390f35b6100776100cd565b6040516100849190610133565b60405180910390f35b6100956100d6565b6040516100a29190610133565b60405180910390f35b6100c560048036038101906100c091906100fb565b6100dc565b005b60005481565b60008054905090565b60015481565b8060008190555050565b6000813590506100f581610158565b92915050565b60006020828403121561010d57600080fd5b600061011b848285016100e6565b91505092915050565b61012d8161014e565b82525050565b60006020820190506101486000830184610124565b92915050565b6000819050919050565b6101618161014e565b811461016c57600080fd5b5056fea2646970667358221220d2cf30fdc13b30f7911cc9c6ea229527c4c3eeddf01e4bdb9c908f2c6c4b6d6a64736f6c63430008000033",
  "immutableReferences": {},
  "source": "// SPDX-License-Identifier: MIT\npragma solidity >=0.4.22 <0.9.0;\n\ncontract Test {\n  uint public x;\n  uint public b;\n\n  function Setter(uint256 _x) public {\n    x = _x;\n  }\n\n  function Getter() public view returns(uint256){\n    return x;\n  }\n}\n",
  "sourcePath": "C:\\Users\\user\\OneDrive\\Documents\\GitHub\\3.0\\Solidty\\Practices\\contracts\\Test.sol",
  "compiler": {
    "name": "solc",
    "version": "0.8.0+commit.c7dfd78e.Emscripten.clang"
  },
  "schemaVersion": "3.4.16",
  "updatedAt": "2023-09-22T15:25:59.481Z",
  "networkType": "ethereum",
  "devdoc": {
    "kind": "dev",
    "methods": {},
    "version": 1
  },
  "userdoc": {
    "kind": "user",
    "methods": {},
    "version": 1
  }
}