{
  "_format": "hh-sol-artifact-1",
  "contractName": "SchoolData",
  "sourceName": "Contracts/Schooldb.sol",
  "abi": [
    {
      "inputs": [],
      "stateMutability": "nonpayable",
      "type": "constructor"
    },
    {
      "inputs": [],
      "name": "Owner",
      "outputs": [
        {
          "internalType": "address",
          "name": "",
          "type": "address"
        }
      ],
      "stateMutability": "view",
      "type": "function"
    },
    {
      "inputs": [
        {
          "internalType": "uint256",
          "name": "",
          "type": "uint256"
        }
      ],
      "name": "StudentList",
      "outputs": [
        {
          "internalType": "string",
          "name": "name",
          "type": "string"
        },
        {
          "internalType": "uint256",
          "name": "roll_number",
          "type": "uint256"
        },
        {
          "internalType": "uint256",
          "name": "class",
          "type": "uint256"
        },
        {
          "internalType": "string",
          "name": "section",
          "type": "string"
        }
      ],
      "stateMutability": "view",
      "type": "function"
    },
    {
      "inputs": [
        {
          "internalType": "uint256",
          "name": "_id",
          "type": "uint256"
        }
      ],
      "name": "deleteStudent",
      "outputs": [],
      "stateMutability": "nonpayable",
      "type": "function"
    },
    {
      "inputs": [
        {
          "internalType": "uint256",
          "name": "_id",
          "type": "uint256"
        },
        {
          "internalType": "string",
          "name": "_name",
          "type": "string"
        },
        {
          "internalType": "uint256",
          "name": "_roll",
          "type": "uint256"
        },
        {
          "internalType": "uint256",
          "name": "_class",
          "type": "uint256"
        },
        {
          "internalType": "string",
          "name": "_section",
          "type": "string"
        }
      ],
      "name": "newStudent",
      "outputs": [],
      "stateMutability": "nonpayable",
      "type": "function"
    },
    {
      "inputs": [
        {
          "internalType": "uint256",
          "name": "_id",
          "type": "uint256"
        },
        {
          "internalType": "string",
          "name": "_name",
          "type": "string"
        },
        {
          "internalType": "uint256",
          "name": "_roll",
          "type": "uint256"
        },
        {
          "internalType": "uint256",
          "name": "_class",
          "type": "uint256"
        },
        {
          "internalType": "string",
          "name": "section",
          "type": "string"
        }
      ],
      "name": "updateStudent",
      "outputs": [],
      "stateMutability": "nonpayable",
      "type": "function"
    }
  ],
  "bytecode": "0x608060405234801561001057600080fd5b50336000806101000a81548173ffffffffffffffffffffffffffffffffffffffff021916908373ffffffffffffffffffffffffffffffffffffffff16021790555061116e806100606000396000f3fe608060405234801561001057600080fd5b50600436106100575760003560e01c80638226697e1461005c57806395bbc64e14610078578063b4a99a4e146100ab578063b645307d146100c9578063b73cfa29146100e5575b600080fd5b61007660048036038101906100719190610908565b610101565b005b610092600480360381019061008d91906109bb565b61037b565b6040516100a29493929190610a76565b60405180910390f35b6100b36104bb565b6040516100c09190610b0a565b60405180910390f35b6100e360048036038101906100de91906109bb565b6104df565b005b6100ff60048036038101906100fa9190610908565b61060f565b005b60008054906101000a900473ffffffffffffffffffffffffffffffffffffffff1673ffffffffffffffffffffffffffffffffffffffff163373ffffffffffffffffffffffffffffffffffffffff161461018f576040517f08c379a000000000000000000000000000000000000000000000000000000000815260040161018690610b97565b60405180910390fd5b60006001600087815260200190815260200160002060010154036101e8576040517f08c379a00000000000000000000000000000000000000000000000000000000081526004016101df90610c03565b60405180910390fd5b600084511461021a57836001600087815260200190815260200160002060000190816102149190610e2f565b50610254565b600160008681526020019081526020016000206000016001600087815260200190815260200160002060000190816102529190610f2c565b505b6000831461027c578260016000878152602001908152602001600020600101819055506102ae565b600160008681526020019081526020016000206001015460016000878152602001908152602001600020600101819055505b600082146102d657816001600087815260200190815260200160002060020181905550610308565b600160008681526020019081526020016000206002015460016000878152602001908152602001600020600201819055505b600081511461033a57806001600087815260200190815260200160002060030190816103349190610e2f565b50610374565b600160008681526020019081526020016000206003016001600087815260200190815260200160002060030190816103729190610f2c565b505b5050505050565b600160205280600052604060002060009150905080600001805461039e90610c52565b80601f01602080910402602001604051908101604052809291908181526020018280546103ca90610c52565b80156104175780601f106103ec57610100808354040283529160200191610417565b820191906000526020600020905b8154815290600101906020018083116103fa57829003601f168201915b50505050509080600101549080600201549080600301805461043890610c52565b80601f016020809104026020016040519081016040528092919081815260200182805461046490610c52565b80156104b15780601f10610486576101008083540402835291602001916104b1565b820191906000526020600020905b81548152906001019060200180831161049457829003601f168201915b5050505050905084565b60008054906101000a900473ffffffffffffffffffffffffffffffffffffffff1681565b60008054906101000a900473ffffffffffffffffffffffffffffffffffffffff1673ffffffffffffffffffffffffffffffffffffffff163373ffffffffffffffffffffffffffffffffffffffff161461056d576040517f08c379a000000000000000000000000000000000000000000000000000000000815260040161056490611086565b60405180910390fd5b60006001600083815260200190815260200160002060010154036105c6576040517f08c379a00000000000000000000000000000000000000000000000000000000081526004016105bd90610c03565b60405180910390fd5b60016000828152602001908152602001600020600080820160006105ea919061071b565b6001820160009055600282016000905560038201600061060a919061071b565b505050565b60008054906101000a900473ffffffffffffffffffffffffffffffffffffffff1673ffffffffffffffffffffffffffffffffffffffff163373ffffffffffffffffffffffffffffffffffffffff161461069d576040517f08c379a000000000000000000000000000000000000000000000000000000000815260040161069490611118565b60405180910390fd5b6040518060800160405280858152602001848152602001838152602001828152506001600087815260200190815260200160002060008201518160000190816106e69190610e2f565b50602082015181600101556040820151816002015560608201518160030190816107109190610e2f565b509050505050505050565b50805461072790610c52565b6000825580601f106107395750610758565b601f016020900490600052602060002090810190610757919061075b565b5b50565b5b8082111561077457600081600090555060010161075c565b5090565b6000604051905090565b600080fd5b600080fd5b6000819050919050565b61079f8161078c565b81146107aa57600080fd5b50565b6000813590506107bc81610796565b92915050565b600080fd5b600080fd5b6000601f19601f8301169050919050565b7f4e487b7100000000000000000000000000000000000000000000000000000000600052604160045260246000fd5b610815826107cc565b810181811067ffffffffffffffff82111715610834576108336107dd565b5b80604052505050565b6000610847610778565b9050610853828261080c565b919050565b600067ffffffffffffffff821115610873576108726107dd565b5b61087c826107cc565b9050602081019050919050565b82818337600083830152505050565b60006108ab6108a684610858565b61083d565b9050828152602081018484840111156108c7576108c66107c7565b5b6108d2848285610889565b509392505050565b600082601f8301126108ef576108ee6107c2565b5b81356108ff848260208601610898565b91505092915050565b600080600080600060a0868803121561092457610923610782565b5b6000610932888289016107ad565b955050602086013567ffffffffffffffff81111561095357610952610787565b5b61095f888289016108da565b9450506040610970888289016107ad565b9350506060610981888289016107ad565b925050608086013567ffffffffffffffff8111156109a2576109a1610787565b5b6109ae888289016108da565b9150509295509295909350565b6000602082840312156109d1576109d0610782565b5b60006109df848285016107ad565b91505092915050565b600081519050919050565b600082825260208201905092915050565b60005b83811015610a22578082015181840152602081019050610a07565b60008484015250505050565b6000610a39826109e8565b610a4381856109f3565b9350610a53818560208601610a04565b610a5c816107cc565b840191505092915050565b610a708161078c565b82525050565b60006080820190508181036000830152610a908187610a2e565b9050610a9f6020830186610a67565b610aac6040830185610a67565b8181036060830152610abe8184610a2e565b905095945050505050565b600073ffffffffffffffffffffffffffffffffffffffff82169050919050565b6000610af482610ac9565b9050919050565b610b0481610ae9565b82525050565b6000602082019050610b1f6000830184610afb565b92915050565b7f4f6e6c792061646d696e732063616e207570646174652074686520646574616960008201527f6c73206f6620612073747564656e742e00000000000000000000000000000000602082015250565b6000610b816030836109f3565b9150610b8c82610b25565b604082019050919050565b60006020820190508181036000830152610bb081610b74565b9050919050565b7f53747564656e7420646f6573206e6f7420657869737400000000000000000000600082015250565b6000610bed6016836109f3565b9150610bf882610bb7565b602082019050919050565b60006020820190508181036000830152610c1c81610be0565b9050919050565b7f4e487b7100000000000000000000000000000000000000000000000000000000600052602260045260246000fd5b60006002820490506001821680610c6a57607f821691505b602082108103610c7d57610c7c610c23565b5b50919050565b60008190508160005260206000209050919050565b60006020601f8301049050919050565b600082821b905092915050565b600060088302610ce57fffffffffffffffffffffffffffffffffffffffffffffffffffffffffffffffff82610ca8565b610cef8683610ca8565b95508019841693508086168417925050509392505050565b6000819050919050565b6000610d2c610d27610d228461078c565b610d07565b61078c565b9050919050565b6000819050919050565b610d4683610d11565b610d5a610d5282610d33565b848454610cb5565b825550505050565b600090565b610d6f610d62565b610d7a818484610d3d565b505050565b5b81811015610d9e57610d93600082610d67565b600181019050610d80565b5050565b601f821115610de357610db481610c83565b610dbd84610c98565b81016020851015610dcc578190505b610de0610dd885610c98565b830182610d7f565b50505b505050565b600082821c905092915050565b6000610e0660001984600802610de8565b1980831691505092915050565b6000610e1f8383610df5565b9150826002028217905092915050565b610e38826109e8565b67ffffffffffffffff811115610e5157610e506107dd565b5b610e5b8254610c52565b610e66828285610da2565b600060209050601f831160018114610e995760008415610e87578287015190505b610e918582610e13565b865550610ef9565b601f198416610ea786610c83565b60005b82811015610ecf57848901518255600182019150602085019450602081019050610eaa565b86831015610eec5784890151610ee8601f891682610df5565b8355505b6001600288020188555050505b505050505050565b600081549050610f1081610c52565b9050919050565b60008190508160005260206000209050919050565b818103610f3a575050611012565b610f4382610f01565b67ffffffffffffffff811115610f5c57610f5b6107dd565b5b610f668254610c52565b610f71828285610da2565b6000601f831160018114610fa05760008415610f8e578287015490505b610f988582610e13565b86555061100b565b601f198416610fae87610f17565b9650610fb986610c83565b60005b82811015610fe157848901548255600182019150600185019450602081019050610fbc565b86831015610ffe5784890154610ffa601f891682610df5565b8355505b6001600288020188555050505b5050505050505b565b7f4f6e6c792061646d696e732063616e2064656c6574652074686520646574616960008201527f6c73206f6620612073747564656e742e00000000000000000000000000000000602082015250565b60006110706030836109f3565b915061107b82611014565b604082019050919050565b6000602082019050818103600083015261109f81611063565b9050919050565b7f4f6e6c792061646d696e73206368616e67652063616e20656e6c69737420612060008201527f6e65772073747564656e742e0000000000000000000000000000000000000000602082015250565b6000611102602c836109f3565b915061110d826110a6565b604082019050919050565b60006020820190508181036000830152611131816110f5565b905091905056fea26469706673582212209fd7a8e88e44e00275a7872c9ade9d70f9f3ad362fc7ac08e26ccfbf0b82212564736f6c63430008130033",
  "linkReferences": {},
  "deployedLinkReferences": {}
}