{
  "_format": "hh-sol-artifact-1",
  "contractName": "SchoolData",
  "sourceName": "Contracts/Schooldb.sol",
  "abi": [
    {
      "inputs": [
        {
          "internalType": "uint256",
          "name": "",
          "type": "uint256"
        }
      ],
      "name": "StudentList",
      "outputs": [
        {
          "internalType": "string",
          "name": "name",
          "type": "string"
        },
        {
          "internalType": "uint256",
          "name": "roll_number",
          "type": "uint256"
        },
        {
          "internalType": "uint256",
          "name": "class",
          "type": "uint256"
        },
        {
          "internalType": "string",
          "name": "section",
          "type": "string"
        }
      ],
      "stateMutability": "view",
      "type": "function"
    },
    {
      "inputs": [
        {
          "internalType": "uint256",
          "name": "_id",
          "type": "uint256"
        }
      ],
      "name": "deleteStudent",
      "outputs": [],
      "stateMutability": "nonpayable",
      "type": "function"
    },
    {
      "inputs": [
        {
          "internalType": "uint256",
          "name": "_id",
          "type": "uint256"
        },
        {
          "internalType": "string",
          "name": "_name",
          "type": "string"
        },
        {
          "internalType": "uint256",
          "name": "_roll",
          "type": "uint256"
        },
        {
          "internalType": "uint256",
          "name": "_class",
          "type": "uint256"
        },
        {
          "internalType": "string",
          "name": "_section",
          "type": "string"
        }
      ],
      "name": "newStudent",
      "outputs": [],
      "stateMutability": "nonpayable",
      "type": "function"
    },
    {
      "inputs": [
        {
          "internalType": "uint256",
          "name": "_id",
          "type": "uint256"
        },
        {
          "internalType": "string",
          "name": "_name",
          "type": "string"
        },
        {
          "internalType": "uint256",
          "name": "_roll",
          "type": "uint256"
        },
        {
          "internalType": "uint256",
          "name": "_class",
          "type": "uint256"
        },
        {
          "internalType": "string",
          "name": "section",
          "type": "string"
        }
      ],
      "name": "updateStudent",
      "outputs": [],
      "stateMutability": "nonpayable",
      "type": "function"
    }
  ],
  "bytecode": "0x608060405234801561001057600080fd5b50610d55806100206000396000f3fe608060405234801561001057600080fd5b506004361061004c5760003560e01c80638226697e1461005157806395bbc64e1461006d578063b645307d146100a0578063b73cfa29146100bc575b600080fd5b61006b60048036038101906100669190610701565b6100d8565b005b610087600480360381019061008291906107b4565b6102b7565b604051610097949392919061086f565b60405180910390f35b6100ba60048036038101906100b591906107b4565b6103f7565b005b6100d660048036038101906100d19190610701565b610497565b005b60008060008781526020019081526020016000206001015403610130576040517f08c379a00000000000000000000000000000000000000000000000000000000081526004016101279061090e565b60405180910390fd5b60008451146101615783600080878152602001908152602001600020600001908161015b9190610b3a565b50610199565b60008086815260200190815260200160002060000160008087815260200190815260200160002060000190816101979190610c37565b505b600083146101c05782600080878152602001908152602001600020600101819055506101f0565b60008086815260200190815260200160002060010154600080878152602001908152602001600020600101819055505b60008214610217578160008087815260200190815260200160002060020181905550610247565b60008086815260200190815260200160002060020154600080878152602001908152602001600020600201819055505b6000815114610278578060008087815260200190815260200160002060030190816102729190610b3a565b506102b0565b60008086815260200190815260200160002060030160008087815260200190815260200160002060030190816102ae9190610c37565b505b5050505050565b60006020528060005260406000206000915090508060000180546102da9061095d565b80601f01602080910402602001604051908101604052809291908181526020018280546103069061095d565b80156103535780601f1061032857610100808354040283529160200191610353565b820191906000526020600020905b81548152906001019060200180831161033657829003601f168201915b5050505050908060010154908060020154908060030180546103749061095d565b80601f01602080910402602001604051908101604052809291908181526020018280546103a09061095d565b80156103ed5780601f106103c2576101008083540402835291602001916103ed565b820191906000526020600020905b8154815290600101906020018083116103d057829003601f168201915b5050505050905084565b6000806000838152602001908152602001600020600101540361044f576040517f08c379a00000000000000000000000000000000000000000000000000000000081526004016104469061090e565b60405180910390fd5b600080828152602001908152602001600020600080820160006104729190610514565b600182016000905560028201600090556003820160006104929190610514565b505050565b60405180608001604052808581526020018481526020018381526020018281525060008087815260200190815260200160002060008201518160000190816104df9190610b3a565b50602082015181600101556040820151816002015560608201518160030190816105099190610b3a565b509050505050505050565b5080546105209061095d565b6000825580601f106105325750610551565b601f0160209004906000526020600020908101906105509190610554565b5b50565b5b8082111561056d576000816000905550600101610555565b5090565b6000604051905090565b600080fd5b600080fd5b6000819050919050565b61059881610585565b81146105a357600080fd5b50565b6000813590506105b58161058f565b92915050565b600080fd5b600080fd5b6000601f19601f8301169050919050565b7f4e487b7100000000000000000000000000000000000000000000000000000000600052604160045260246000fd5b61060e826105c5565b810181811067ffffffffffffffff8211171561062d5761062c6105d6565b5b80604052505050565b6000610640610571565b905061064c8282610605565b919050565b600067ffffffffffffffff82111561066c5761066b6105d6565b5b610675826105c5565b9050602081019050919050565b82818337600083830152505050565b60006106a461069f84610651565b610636565b9050828152602081018484840111156106c0576106bf6105c0565b5b6106cb848285610682565b509392505050565b600082601f8301126106e8576106e76105bb565b5b81356106f8848260208601610691565b91505092915050565b600080600080600060a0868803121561071d5761071c61057b565b5b600061072b888289016105a6565b955050602086013567ffffffffffffffff81111561074c5761074b610580565b5b610758888289016106d3565b9450506040610769888289016105a6565b935050606061077a888289016105a6565b925050608086013567ffffffffffffffff81111561079b5761079a610580565b5b6107a7888289016106d3565b9150509295509295909350565b6000602082840312156107ca576107c961057b565b5b60006107d8848285016105a6565b91505092915050565b600081519050919050565b600082825260208201905092915050565b60005b8381101561081b578082015181840152602081019050610800565b60008484015250505050565b6000610832826107e1565b61083c81856107ec565b935061084c8185602086016107fd565b610855816105c5565b840191505092915050565b61086981610585565b82525050565b600060808201905081810360008301526108898187610827565b90506108986020830186610860565b6108a56040830185610860565b81810360608301526108b78184610827565b905095945050505050565b7f53747564656e7420646f6573206e6f7420657869737400000000000000000000600082015250565b60006108f86016836107ec565b9150610903826108c2565b602082019050919050565b60006020820190508181036000830152610927816108eb565b9050919050565b7f4e487b7100000000000000000000000000000000000000000000000000000000600052602260045260246000fd5b6000600282049050600182168061097557607f821691505b6020821081036109885761098761092e565b5b50919050565b60008190508160005260206000209050919050565b60006020601f8301049050919050565b600082821b905092915050565b6000600883026109f07fffffffffffffffffffffffffffffffffffffffffffffffffffffffffffffffff826109b3565b6109fa86836109b3565b95508019841693508086168417925050509392505050565b6000819050919050565b6000610a37610a32610a2d84610585565b610a12565b610585565b9050919050565b6000819050919050565b610a5183610a1c565b610a65610a5d82610a3e565b8484546109c0565b825550505050565b600090565b610a7a610a6d565b610a85818484610a48565b505050565b5b81811015610aa957610a9e600082610a72565b600181019050610a8b565b5050565b601f821115610aee57610abf8161098e565b610ac8846109a3565b81016020851015610ad7578190505b610aeb610ae3856109a3565b830182610a8a565b50505b505050565b600082821c905092915050565b6000610b1160001984600802610af3565b1980831691505092915050565b6000610b2a8383610b00565b9150826002028217905092915050565b610b43826107e1565b67ffffffffffffffff811115610b5c57610b5b6105d6565b5b610b66825461095d565b610b71828285610aad565b600060209050601f831160018114610ba45760008415610b92578287015190505b610b9c8582610b1e565b865550610c04565b601f198416610bb28661098e565b60005b82811015610bda57848901518255600182019150602085019450602081019050610bb5565b86831015610bf75784890151610bf3601f891682610b00565b8355505b6001600288020188555050505b505050505050565b600081549050610c1b8161095d565b9050919050565b60008190508160005260206000209050919050565b818103610c45575050610d1d565b610c4e82610c0c565b67ffffffffffffffff811115610c6757610c666105d6565b5b610c71825461095d565b610c7c828285610aad565b6000601f831160018114610cab5760008415610c99578287015490505b610ca38582610b1e565b865550610d16565b601f198416610cb987610c22565b9650610cc48661098e565b60005b82811015610cec57848901548255600182019150600185019450602081019050610cc7565b86831015610d095784890154610d05601f891682610b00565b8355505b6001600288020188555050505b5050505050505b56fea2646970667358221220e831318e516531421e22d0158e334e453cc0c7d58156fe02643939c5a9f19c3564736f6c63430008130033",
  "linkReferences": {},
  "deployedLinkReferences": {}
}